S01500002E2E2F62696E2F63757272656E742E733139E9
S32D0000C0000000002005E1000061E4000061E4000061E4000061E4000061E40000000000000000000000000000B3
S32D0000C0280000000061E4000061E400000000000061E4000061E4000061E4000061E4000061E4000061E40000C2
S32D0000C05061E4000061E4000061E4000061E4000061E4000061E4000061E4000061E4000061E4000061E4000010
S32D0000C07861E4000061E4000061E4000061E4000061E4000061E4000061E4000061E4000061E4000061E40000E8
S32D0000C0A061E4000061E4000061E4000061E4000061E4000061E4000061E4000061E4000061E4000061E40000C0
S32D0000C0C861E4000061E4000061E4000061E4000061E4000061E4000061E4000061E4000061E4000061E4000098
S32D0000C0F061E40000611B010061E4000061E4000061E4000061E4000061E4000061E4000061E4000061E4000038
S32D0000C11861E4000061E4000061E4000061E4000061E4000061E4000061E4000061E4000061E4000061E4000047
S32D0000C14061E4000061E4000061E4000061E400002DF0000061E4000061E4000061E4000061E4000061E4000047
S32D0000C16861E4000061E4000061E4000061E4000061E4000061E4000061E4000061E4000061E4000061E40000F7
S32D0000C19061E4000061E4000061E4000061E4000061E4000061E40000B1E4000061E4000061E4000061E400007F
S32D0000C1B861E4000061E4000061E4000061E4000061E4000061E4000061E4000061E4000061E4000061E40000A7
S32D0000C41080F0004002E000BF81F0004142001FBF5FEA410392EA030F7FEA226C7FEA236C6AD04FEA1262D2EB2D
S32D0000C4381363C1BFD218414048404140B8BF5B42192B88BF704710F0004F40F4000020F07F4018BF404211F06A
S32D0000C460004F41F4000121F07F4118BF494292EA030F3FD0A2F1010241FA03FC10EB0C00C3F1200301FA03F1BC
S32D0000C48800F0004302D5494260EB4000B0F5000F13D3B0F1807F06D340084FEA310102F10102FE2A51D2B1F1BD
S32D0000C4B0004F40EBC25008BF20F0010040EA03007047490040EB000010F4000FA2F10102EDD1B0FA80FCACF178
S32D0000C4D8080CB2EB0C0200FA0CF0AABF00EBC25052421843BCBFD0401843704792F0000F81F4000106BF80F44F
S32D0000C50000000132013BB5E74FEA41037FEA226C18BF7FEA236C21D092EA030F04D092F0000F08BF084670470F
S32D0000C52890EA010F1CBF0020704712F07F4F04D1400028BF40F00040704712F100723CBF00F50000704700F0AA
S32D0000C550004343F0FE4040F4000070477FEA226216BF08467FEA23630146420206BF5FEA412390EA010F40F464
S32D0000C578800070474FF0000304E000BF10F0004348BF40425FEA000C08BF704743F0964301464FF000001CE04C
S32D0000C5A050EA010208BF70474FF000030AE000BF50EA010208BF704711F0004302D5404261EB41015FEA010C8B
S32D0000C5C802BF84460146002043F0B64308BFA3F18053A3F50003BCFA8CF2083AA3EBC25310DB01FA02FC6344BA
S32D0000C5F000FA02FCC2F12002BCF1004F20FA02F243EB020008BF20F00100704702F1200201FA02FCC2F12002A4
S32D0000C61850EA4C0021FA02F243EB020008BF20EADC7070474FF0FF0C1CEAD0521EBF1CEAD15392EA0C0F93EACE
S32D0000C6400C0F6FD01A4480EA010C400218BF5FEA41211ED04FF0006343EA501043EA5111A0FB01310CF0004024
S32D0000C668B1F5000F3EBF490041EAD3715B0040EA010062F17F02FD2A1DD8B3F1004F40EBC25008BF20F00100BC
S32D0000C690704790F0000F0CF0004C08BF49024CEA502040EA51207F3AC2BFD2F1FF0340EAC250704740F4000075
S32D0000C6B84FF00003013A5DDC12F1190FDCBF00F000407047C2F10002410021FA02F1C2F1200200FA02FC5FEAD7
S32D0000C6E0310040F1000053EA4C0308BF20EADC70704792F0000F00F0004C02BF400010F4000F013AF9D040EA5B
S32D0000C7080C0093F0000F01F0004C02BF490011F4000F013BF9D041EA0C018FE70CEAD15392EA0C0F18BF93EA52
S32D0000C7300C0F0AD030F0004C18BF31F0004CD8D180EA010000F00040704790F0000F17BF90F0004F084691F038
S32D0000C758000F91F0004F14D092EA0C0F01D142020FD193EA0C0F03D14B0218BF084608D180EA010000F0004011
S32D0000C78040F0FE4040F40000704740F0FE4040F4400070474FF0FF0C1CEAD0521EBF1CEAD15392EA0C0F93EA0C
S32D0000C7A80C0F69D0A2EB030280EA010C49024FEA402037D04FF0805343EA111143EA10130CF000408B4238BF6A
S32D0000C7D05B0042F17D024FF4000C8B4224BF5B1A40EA0C00B3EB510F24BFA3EB510340EA5C00B3EB910F24BF1A
S32D0000C7F8A3EB910340EA9C00B3EBD10F24BFA3EBD10340EADC001B0118BF5FEA1C1CE0D1FD2A3FF650AF8B4215
S32D0000C82040EBC25008BF20F0010070470CF0004C4CEA50207F32C2BFD2F1FF0340EAC250704740F400004FF0D3
S32D0000C8480003013A37E792F0000F00F0004C02BF400010F4000F013AF9D040EA0C0093F0000F01F0004C02BFBB
S32D0000C870490011F4000F013BF9D041EA0C0195E70CEAD15392EA0C0F08D142027FF47DAF93EA0C0F7FF470AFED
S32D0000C898084676E793EA0C0F04D14B023FF44CAF08466EE730F0004C18BF31F0004CCAD130F000427FF45CAF11
S32D0000C8C031F000437FF43CAF5FE700BF4FF0FF3C06E000BF4FF0010C02E000BF4FF0010C4DF804CD4FEA40029A
S32D0000C8E84FEA41037FEA226C18BF7FEA236C11D001B052EA530C18BF90EA010F58BFB2EB030088BFC81738BF7D
S32D0000C9106FEAE17018BF40F0010070477FEA226C02D15FEA402C05D17FEA236CE4D15FEA412CE1D05DF8040BC3
S32D0000C938704700BF844608466146FFE70FB5FFF7C9FF002848BF10F1000F0FBD4DF808EDFFF7F4FF0CBF01201A
S32D0000C96000205DF808FB00BF4DF808EDFFF7EAFF34BF012000205DF808FB00BF4DF808EDFFF7E0FF94BF01208B
S32D0000C98800205DF808FB00BF4DF808EDFFF7D2FF94BF012000205DF808FB00BF4DF808EDFFF7C8FF34BF012093
S32D0000C9B000205DF808FB00BF4FEA4002B2F1FE4F0FD34FF09E03B3EB12620DD94FEA002343F0004310F0004FDC
S32D0000C9D823FA02F018BF404270474FF00000704712F1610F01D1420205D110F0004008BF6FF0004070474FF021
S32D0000CA0000007047036803B11B181846704700BF03685A004CBF43F0004323F00043C018704700BF2DE9F84FE4
S32D0000CA280446914641B301F1FF3BDA46002707EB0A0101EBD1756D1004EBC5063046FFF7E3FF8046681CAB456A
S32D0000CA5004EBC0000DD0FFF7DBFF0138C84504D9BD4209D005F1FF3AE5E7484505D26F1CE1E74FF0FF30F1E769
S32D0000CA7800263046BDE8F88F0E463046BDE8F88F30B52B4B83B004468D1E002B49D0284601A9AFF30080034688
S32D0000CAA0002822D02A4618460199FFF7BBFF054600281DD0FFF7ACFF6B68A064012B10D0281D002B22DBFFF7EF
S32D0000CAC8A3FF0021E06421650368002B0FDBFFF79BFF2061002003B030BD002323610520F9E720610920F6E72F
S32D0000CAF020610920F3E7C3F3036058B101280CD002280ED0002020610920E8E70122E0642265DDE7094B236142
S32D0000CB18E1E7094A00202261DDE7084900202161D9E7074B0749C81AC2100192B6E700BF0000000055D0000050
S32D0000CB4051D000004DD000005C5801004C5A0100036810B50446D80706D4990704F1480009D500F00DFD2368BA
S32D0000CB685A0709D518070ED5D90613D510BD00F0FBFC23685A07F5D404F1D00000F004FD23681807F0D404F511
S32D0000CB90D87000F005FD2368D906EBD404F50C70BDE8104000F040BD2DE9F0470F1D054691460FCFADF5916DA4
S32D0000CBB802AC261D0FC60FCF0FC60FCF0FC697E80F00D5F80C80D5F818A0002786E80F00216C27602846FFF79B
S32D0000CBE053FF0646B94514BF4FF00A094FF00909FEB1A16B49F01009616401208DE8100449462A462B46C04722
S32D0000CC0800282BD1002E2AD1204692A94FF4107205F0F0FE082F28D1216C2846FFF730FF06464FF00909002E4D
S32D0000CC30DFD1206C21464FF41072686192A805F0DDFE2F69294692AA4846B847A09B0746636401208DE81004D2
S32D0000CC5849462A462B46C0470028D3D00926304622B00DF5806DBDE8F087072FF6D1201D00F06EFC38B504461F
S32D0000CC800D46296C2046FFF7FFFE50B92A6C23696261012021462A4698470828F1D0072801D007F0FBFF281D59
S32D0000CCA800F056FC11B933B10220704704298CBF0220012070470F2A01D90220704700EB820118464A68009B1E
S32D0000CCD01A60704710B50A4684B000210B4603AC0094FFF7E3FF039804B010BD11B933B10220704704298CBF14
S32D0000CCF80220012070470F2A01D902207047009900EB8202096818465160704710B584B004AB0C4643F8042D83
S32D0000CD200021009322460B46FFF7E0FF04B010BD2DE9F04FCD6C8BB00C4655F8041B174600F008021E4603924B
S32D0000CD4800F003080795002B40F0CF8009020691216D8DF821300323B8F1020F8DF8203008BFA56B11F00103E5
S32D0000CD7040F0D380019304F158030293D5F80090B9F1000F00F0CB80022E00F0AE80B5F80090B5F802A0043535
S32D0000CD98A26C0F212AF0010B38469344FFF796FF834518D829F0010CE3440AF0010A09F00103584543EA4A0905
S32D0000CDC02CBF00200120B9F1010F12D032D2B8F1000F02D0002840F01D810435CEE70AF0010A09F0010343EADC
S32D0000CDE84A090020B9F1010FECD1B8F1000F40F0B680C8B16B68D5F800909A1C19D0029A013309920DD0281D40
S32D0000CE10FFF7F8FD4FEAD972014609AB204606F0A7FF002800F0F280099A002A40F0BA800835A3E7B9F1020F45
S32D0000CE3803D009200BB0BDE8F08F2B6823F000420092B8F1000F71D1002843D00398002840F0A180009800286E
S32D0000CE6000F0A080009BDDF80C90DB0705F1040A40F1B480CDF810800596A846029E12E000998D4200F0D9801C
S32D0000CE880996FFF7BBFD5A46014609AB204606F06BFFA946B0B90AF1040A05F1010950460996FFF7ABFD09ABE6
S32D0000CEB001460022204606F05BFF0AF1040A834609F101055046BBF1000FD9D04546059EDDF81080009A4A45AD
S32D0000CED864D02B68002B7BDB0099481C05EB800548E7D5F804A0083552E70B04C1F30740216D06930222B8F15E
S32D0000CF00020F05EB800508BFA56B8DF8210011F001038DF820203FF42DAF00200190384606A900F019FC00281C
S32D0000CF2887D1019A002A43D1082083E70D213846D4F82090FFF7CAFE8145CAD1A26A9542C7D10098291D002256
S32D0000CF500423A062E26223636163286800286EDB01220192BCE70D213846D4F82090FFF7B1FE81457FF45CAF91
S32D0000CF78A16A8D427FF458AF2846FFF745FD0F2102463846FFF7C2FE384600212246FFF7BDFE07204EE7009938
S32D0000CFA000299BD138460D21FFF794FE099B20626362A562062041E70F213846FFF78AFE0E2102463846FFF743
S32D0000CFC8A5FE38460F211E4AFFF7A0FE072031E7043581E7029950460991FFF70FFD039A014609AB204606F04D
S32D0000CFF0BFFE00287FF46EAFCDF8108005960AF1040A4FF00109A846029E4CE7CDF824800835B3E62846FFF7F8
S32D0000D018FBFC04350646A563204606F01BFF00283FF407AF38460F213246FFF76FFE072000E74546B2E7009B89
S32D0000D040591C05EB81009CE7C53F010002236FE601236DE600236BE62DE9F0470446E8B004290CD8DFE801F0F7
S32D0000D068380391930F00150C012B96B200F07881052B00F0C780022068B0BDE8F087002BF9D1102AF7D8236868
S32D0000D090D90600F1738164A8019200F0CFFA019AA36BD00744BF53F8040B6490910744BF53F8041B6591500733
S32D0000D0B844BF53F8041B6691110748BF53F8042B64A8A36348BF679200F0AAFA0020D3E7002BD0D1A36BD0071C
S32D0000D0E091B244BF53F8042B62608A0744BF53F8042BA260480744BF53F8042BE2600A0744BF53F8042B226171
S32D0000D108C80644BF53F8042B62618A0644BF53F8042BA261480644BF53F8042BE2610A0644BF53F8042B2262BC
S32D0000D130C80544BF53F8042B62628A0544BF53F8042BA262480544BF53F8042BE2620A0544BF53F8042B226394
S32D0000D158C80444BF53F8042B626311F400501CBF53F8042BA2634A0444BF53F8042BE2630A0444BF53F8042B51
S32D0000D1802264002840D1A3637AE7012078E7032B7FF475AF160C95B2AA19102A3FF66FAF2368180700F10B8136
S32D0000D1A844A800F01BFAA76B4FEA450E3B460DB344A90EF1FF3C01EBC60653F8040B62460CF0010146F8040B5D
S32D0000D1D092B129B153F8041B013A46F8041B0BD01846314650F8045B41F8045B5D68031D75600E1D023AF3D13E
S32D0000D1F807EB8E0344A8A36300F0CEF900203BE7002039E777192022BA42FFF434AF012B00F0A9800F2D40F204
S32D0000D220A9803746F6B1052B7FF429AF0F2D11D82268D0070ED522F00101052B2160204600F0DA8022F0030223
S32D0000D24840F8482B019300F093F9019B1FB12268510700F1B880012B00F0BF800F2D75D9002F40F0A080D4F856
S32D0000D2703890002EC8462EDD49460DF1080A4FEA46080AEBC50251F8046B08F1FF3000F0010A42F8046BA8F182
S32D0000D298020CD0B1BAF1000F08D051F8040B0CF1FF3CBCF1FF3F42F8040B0ED00E46104656F804AB40F804AB17
S32D0000D2C04968ACF1020C5160311D021DBCF1FF3FF0D109EB8808A7B3102D2CBF2E4610260DF5D079414609EBA4
S32D0000D2E8C60CACF5C8724FEA470951F8046B09F1FF3000F0010A42F8046BA9F1020CD0B1BAF1000F08D051F859
S32D0000D310040B0CF1FF3CBCF1FF3F42F8040B0ED00E46104656F804AB40F804AB4968ACF1020C5160311D021D8E
S32D0000D338BCF1FF3FF0D108EB8908012B2BD00F2DC4F8388008D9FFB9384695E602A8019300F016F9019B83E7EB
S32D0000D36002A800F00DF9F2E77719102250E70F2D3FF685AE102F10D9103F54E723F01003236004F50C70019226
S32D0000D38800F058F9019A82E624A800F0FDF8002072E6002746E708F1040302A8A36300F0E3F8002068E624A801
S32D0000D3B00193C5F1100600F0EFF8019B57E723F0080704F5D870276000F00CF9ECE6204622F0040140F8D01BED
S32D0000D3D8019300F0DDF8019B3DE702A8019300F0C7F8019B002F3FF43EAFC5F110063AE741F0020140F8481B7A
S32D0000D400019300F0C1F8019B24E700BF406C7047F0B50D460F1DC96B296404460FCFADF5117D01AE0FC60FCF59
S32D0000D4280FC60FCF0FC697E80F0086E80F004FF0FF33009310992046FFF722FB58B9266921466A46B04708283F
S32D0000D4500646F3D06846FFF77BFB062E03D009200DF5117DF0BD20462946FFF707FC00BF10B4DC6BC16082617C
S32D0000D478194600221C6410BCFFF792BB38B54269C3680A6404460D4623B10122FFF788FB07F000FC0369214672
S32D0000D4A002202A469847072803D0082804D007F0F5FB281D00F050F820462946FFF7DEFBC36823B1CA6B0A643D
S32D0000D4C80022FFF76DBB9FE7704700BF08B5836801460BB10120984708BD00BFF0B5D46B171D146405460C469E
S32D0000D4F00FCFADF5277D01AE0FC60FCF0FC60FCF0FC697E80F0086E80F004FF0FF330093109990A8FFF7B8FA68
S32D0000D518034690AA68460C21BBB9FFF7F7FB21466846A847064690A908206A466EB9949B98470528064601D04B
S32D0000D5400928E5D16846FFF703FB30460DF5277DF0BD0926F6E700BF00F1340191E838009C46A6464CF8045D56
S32D0000D56890E8FF0FE54600BD90EC210B704700BF80EC210B704700BF90EC200B704700BF80EC200B704700BFD1
S32D0000D590D0EC200B704700BFC0EC200B704700BFF0EC0201F0EC0211F0EC0221F0EC0231F0EC0241F0EC025199
S32D0000D5B8F0EC0261F0EC0271F0EC0281F0EC0291F0EC02A1F0EC02B1F0EC02C1F0EC02D1F0EC02E1F0EC02F1FF
S32D0000D5E0704700BFE0EC0201E0EC0211E0EC0221E0EC0231E0EC0241E0EC0251E0EC0261E0EC0271E0EC028120
S32D0000D608E0EC0291E0EC02A1E0EC02B1E0EC02C1E0EC02D1E0EC02E1E0EC02F1704700BFB0FC0181B0FC019129
S32D0000D630B0FC01A1B0FC01B1704700BFA0FC0181A0FC0191A0FC01A1A0FC01B1704700BFEC4600B52DE900500F
S32D0000D6582DE9FF1F4FF000032DE90C0001A9FFF7D3FEDDF840E012B0704700BFEC4600B52DE900502DE9FF1FED
S32D0000D6804FF000032DE90C0001A9FFF7FBFEDDF840E012B0704700BFEC4600B52DE900502DE9FF1F4FF000038F
S32D0000D6A82DE90C0001A9FFF707FFDDF840E012B0704700BFEC4600B52DE900502DE9FF1F4FF000032DE90C007A
S32D0000D6D001ABFFF7CDFEDDF840E012B0704700BFEC4600B52DE900502DE9FF1F4FF000032DE90C0001AAFFF70C
S32D0000D6F8F5FEDDF840E012B0704700BF027A03461AB9427A42B9B02070470068013A01021A72000E196070479E
S32D0000D7204168501E587251F8040B0322596001021A72000E1960704710B5002184B00C220DEB02040B460094CC
S32D0000D748FFF7B0FA039804B010BD00BFF0E700BF2DE9F043064685B00D464FF000094FF47F672846FFF7CAFFE7
S32D0000D770B028044600F0B08010F0800120D000F0F003802B74D0902B37D0A02B45D0B02B56D0C02B00F0858083
S32D0000D79800F0F800D0280BD104F00702511C41F40022304601210523FFF752FC0028D8D0092005B0BDE8F0831C
S32D0000D7C04FEA800203A85FFA82F800900D220B463046FFF76BFA039B600608F104084CBFC8EB0303434403AC1E
S32D0000D7E803930094002130460D220B46FFF77AFAB7E700F00F020D2ADAD00F2AD8D0002103AC009430460B46DC
S32D0000D81003ACFFF74BFA0094E8E7C24302F0070C47FA0CF0210700F47F6248BF42F48042002130460B46FFF77C
S32D0000D8380FFC0028BCD194E7B1285DD0B2286ED0B32800F0958000F0FC02B42A46D000F00702531C43F40022E6
S32D0000D860012130460B46FFF7F7FB0028A4D17CE72846FFF747FF210240EA0104B4F5004F9AD0230500211A0CFC
S32D0000D88830460B462401FFF7E3FB002890D114F4004F18BF4FF0010963E7C62873D0C72800F0848000F0F8026A
S32D0000D8B0C02A00F09280C82800F0A680C9287FF47BAF2846FFF71EFF00F00F0300F0F0015A1C42EA013268E742
S32D0000D8D8B9F1000F00F0838000206AE700F00301481C022140F480220B463046FFF7B0FB00287FF45DAF34E78A
S32D0000D9002846FFF7FFFE024600283FF455AF10F0F0017FF451AF30460B46FFF79DFB00287FF44AAF21E700217B
S32D0000D9280D220B4603AC30460094FFF7BBF92846FFF7E4FE022402060DD5039B00F07F0000FA04FE03EB0E0192
S32D0000D95028460391FFF7D6FE07340306F1D4039B00F07F0103AA03F5017C01FA04F400920CEB0402039239E76D
S32D0000D9782846FFF7C3FE00F00F03591C00F0F00041EA003268E72846FFF7B8FE00F00F03591C00F0F00041EABD
S32D0000D9A00032032130460B46FFF756FB00287FF403AFDAE62846FFF7A5FE024600283FF4FBAE10F0F0037FF42F
S32D0000D9C8F7AE30460421FFF743FB00287FF4F0AEC7E600F00F01481C40F42022DDE703AC49460E224B463046C4
S32D0000D9F00094FFF75BF9304649460F224B460094FFF774F94846D8E62846FFF77BFE00F0F00200F00F00103221
S32D0000DA18431C43EA0232C4E610B5C26C84B0032054688DF80C00D37924020832084601A9019402928DF80D3050
S32D0000DA40FFF78AFE04B010BD08B5FFF783FE806C08BD00BF08B5FFF77DFEC16CC87901EB800303F1080008BD49
S32D0000DA6808B507F017F900BF08B507F013F900BF80B58EB000AF00F077FA03467B6343F28060C1F6FF7004F0B5
S32D0000DA9065F943F28060C1F6FF7004F019FE4FF0FA0000F0B3FF43F22863C1F6FF733B6043F22C63C1F6FF7378
S32D0000DAB87B6043F23063C1F6FF73BB6043F23463C1F6FF73FB6043F25063C1F6FF733B6143F26C63C1F6FF732F
S32D0000DAE07B6143F27063C1F6FF73BB6143F27463C1F6FF73FB6143F27863C1F6FF733B6243F28063C1F6FF7347
S32D0000DB087B6243F27C63C1F6FF73BB627B6B3B6343F28060C1F6FF7004F046FE0346FB621FE03B46184600F04D
S32D0000DB30EBF843F2C860C1F6FF7002F0F5FA43F2C860C1F6FF7044F65C61C0F2010102F073FBFB6A43F2C86030
S32D0000DB58C1F6FF70194602F061FC4FF0C80000F051FF43F27C60C1F6FF7001F003FD034683F00103DBB2002BE4
S32D0000DB80D3D14FF0FA0000F041FF43F2C860C1F6FF7002F0C9FA43F2C860C1F6FF7044F66861C0F2010102F006
S32D0000DBA815FC43F2C860C1F6FF7044F67461C0F2010102F00BFC43F2C860C1F6FF7044F68861C0F2010102F0B3
S32D0000DBD001FC3B46184600F06DF94FF00003184607F13807BD4680BD80B582B000AF786039607B68012B78D1FF
S32D0000DBF83A684FF6FF739A4273D143F22860C1F6FF704FF0010100F07DFC43F22C60C1F6FF704FF0000100F0E2
S32D0000DC2075FC43F23060C1F6FF704FF0020100F06DFC43F23460C1F6FF704FF0000101F051FA4FF27923C0F2E5
S32D0000DC48000343F23460C1F6FF70194643F25472C1F6FF7205F060FF43F25060C1F6FF704FF0010101F03AFA75
S32D0000DC704FF27923C0F2000343F25060C1F6FF70194643F25472C1F6FF7205F049FF43F26C60C1F6FF704FF0C4
S32D0000DC98080101F0B5F843F27060C1F6FF704FF0100101F0ADF843F27460C1F6FF704FF0110101F0A5F843F263
S32D0000DCC07860C1F6FF704FF0120101F09DF843F27C60C1F6FF704FF0030101F0B7FB43F28060C1F6FF7003F015
S32D0000DCE8F5FF07F10807BD4680BD00BF80B500AF4FF001004FF6FF71FFF772FF80BD00BF90B58DB000AF7860CF
S32D0000DD107B68DB6ABB627B685B6A184604F048FD03467B6244F67073C0F20103FB6044F67873C0F201037B6156
S32D0000DD384FF001031C46B86A5649FEF72FFE0346002B02D14FF000031C46E3B2002B12D04FF001031C46B86AE1
S32D0000DD604F49FEF70BFE0346002B02D14FF000031C46E3B2002B02D07B6AFB6279E04FF001031C46B86A464991
S32D0000DD88FEF70CFE0346002B02D14FF000031C46E3B2002B29D04FF001031C46B86A3F49FEF7E8FD0346002B2D
S32D0000DDB002D14FF000031C46E3B2002B19D04FF001031C46F86A3849FEF7E2FD0346002B02D14FF000031C46DE
S32D0000DDD8E3B2002B02D07B6AFB6246E0786A3149FEF718FB0346FB623FE04FF001031C46B86A2A49FEF7D2FDFC
S32D0000DE000346002B02D14FF000031C46E3B2002B16D04FF001031C46B86A2549FEF7AEFD0346002B02D14FF008
S32D0000DE2800031C46E3B2002B06D0786A1D49FEF7F1FA0346FB6218E04FF001031C46F86A1749FEF7A1FD0346C8
S32D0000DE50002B02D14FF000031C46E3B2002B06D0786A1249FEF7DAFA0346FB6201E07B6AFB627B68FA6ADA621A
S32D0000DE78FB6A3B617B681A6B07F108031046194600F094F802467B681A6307F13407BD4690BD00BF000034427F
S32D0000DEA000000743000061430000B4420000344300809D4380B584B000AF78607B681B6BFB604FF00103FB7235
S32D0000DEC84AE07B689B6A184601F042FB0346002B0AD0FB685B691B7C83F00103DBB2002B02D04FF0010301E05D
S32D0000DEF04FF00003002B06D0FB685B69FB60F86800F082F828E07B689B6A184601F04AFB0346002B0AD0FB6840
S32D0000DF189B695B7C83F00103DBB2002B02D04FF0010301E04FF00003002B06D0FB689B69FB60F86800F064F82A
S32D0000DF400AE07B689B6A184601F018FB0346002B02D04FF00003FB724FF0FA0000F056FDFB7A002BB1D107F1F4
S32D0000DF681007BD4680BD00BF80B48FB000AF4FF0010387F82C304FF0000387F82D304FF000033B744FF00103E3
S32D0000DF907B744FF00003FB613B467B6307F11C037B6107F11C03184607F13C07BD4680BC704700BF80B485B0B6
S32D0000DFB800AF786039607B68FB6002E0FB689B69FB60FB689B695B7C83F00103DBB2002BF4D1FB689A693B68FE
S32D0000DFE09A613B68FA685A61FB681B6803F101023B681A60FB683A689A613B68184607F11407BD4680BC704754
S32D0000E00880B582B000AF786043F2C860C1F6FF7002F086F843F2C860C1F6FF7044F69871C0F2010102F004F9A0
S32D0000E0307B681B6843F2C860C1F6FF70194602F0DDF943F2C860C1F6FF7044F6A871C0F2010102F0F1F87B686A
S32D0000E0585B6843F2C860C1F6FF70194602F0B6F943F2C860C1F6FF7044F6B871C0F2010102F0ACF943F2C860C6
S32D0000E080C1F6FF7044F6CC71C0F2010102F0A2F97B68DB6843F2C860C1F6FF70194602F099F943F2C860C1F6F4
S32D0000E0A8FF7044F6D871C0F2010102F0C1F87B689B6843F2C860C1F6FF70194602F0AEF907F10807BD4680BD51
S32D0000E0D080B500AF44F2A822C1F6FF7243F22863C1F6FF73D31A194643F22863C1F6FF731A460B4610464FF0B2
S32D0000E0F800011A4604F087FC80BD00BF05F012FD00F0B0F9FFF7E0FF05F0C2FC05F05EFC05F018FD00F00CF8B4
S32D0000E1204FF0000043F28861C1F6FF71FFF7A4FC0346184604F046FC80B500AF4FF4E043C4F204034FF4E0426E
S32D0000E148C4F2040202F5805202F13802126842F4785203F5805303F138031A6000F02EF900F094F843F294634A
S32D0000E170C1F6FF734FF058021A6043F29463C1F6FF731B684FF47A7202FB03F243F29063C1F6FF731A6043F24C
S32D0000E1989063C1F6FF731B681A464FF4E043C4F2040303F5825303F104031B6803F070634FEA136303F101037F
S32D0000E1C0B2FBF3F31A4643F29863C1F6FF731A604FF4E043C4F204034FF4E042C4F2040202F5805202F13C022D
S32D0000E1E8126842F0225203F5805303F13C031A604FF4E043C4F204034FF4E042C4F2040202F5805202F130023F
S32D0000E210126842F0006203F5805303F130031A604FF45043C4F203034FF480721A614FF0640000F0BBFA4FF499
S32D0000E2385043C4F203034FF45042C4F20302526922F010025A614FF45043C4F203034FF000021A604FF450431C
S32D0000E260C4F203034FF010025A6100F04FFE00F0F7FE43F28C60C1F6FF7000F01BFB43F2C860C1F6FF7001F0E5
S32D0000E2880DFE41F2883000F0BDFB80BD80B400AF4FF48043C4F206034FF000025A704FF48043C4F206034FF0D6
S32D0000E2B098021A704FF48043C4F206039B79DBB203F01003002B0CBF00230123DBB2002BF0D14FF48043C4F23E
S32D0000E2D806039B79DBB203F00C034FEA9303022B0CBF00230123DBB2002BEED14FF48043C4F206034FF01802C9
S32D0000E3001A714FF48043C4F206034FF000025A714FF4E043C4F2040303F5825303F104034FF00002C0F2131290
S32D0000E3281A604FF48043C4F206034FF054025A7100BF4FF48043C4F206039B79DBB203F02003002B14BF0023CC
S32D0000E3500123DBB2002BF0D100BF4FF48043C4F206039B79DBB203F04003002B14BF00230123DBB2002BF0D1E9
S32D0000E3784FF48043C4F206034FF48042C4F206021278D2B202F03F02D2B21A704FF48043C4F206039B79DBB23A
S32D0000E3A003F00C034FEA9303032B0CBF00230123DBB2002BEED14FF000031846BD4680BC704700BF80B400AF8F
S32D0000E3C84FF44043C4F204034FF480725A634FF2C003C4F20F034FF2C002C4F20F02526942F400525A614FF2DD
S32D0000E3F0C003C4F20F034FF2C002C4F20F02126842F400521A604FF44043C4F2040340F20312C0F20A021A6329
S32D0000E4184FF46143CEF200034FF46142CEF20002D2F8882142F08062C3F888214FF46143CEF200034FF4614209
S32D0000E440CEF20002926842F080629A60BD4680BC704700BF80B483B000AF7860FEE700BF80B400AF00BEBD46F9
S32D0000E46880BC704780B400AF4FF0E0224CF20003C0F20003C2F8083D4FF40053C4F205034CF22052DA814FF4D8
S32D0000E4900053C4F205034DF62812DA814FF40053C4F205034FF0D2021A80BD4680BC704780B400AF4FF44043D5
S32D0000E4B8C4F20403D3F8A03003F48053002B0CBF00230123DBB2002B19D04FF44043C4F204034FF44042C4F238
S32D0000E4E00402D2F8A02022F48052C3F8A0204FF2C003C4F20F034FF2C002C4F20F02126822F400521A60BD4626
S32D0000E50880BC704780B483B000AF78600B46FB707B68FA781A707B684FF000025A707B68184607F10C07BD462C
S32D0000E53080BC704790B486B000AFF860B9607A60FA684FF42043C4F206039A4214D14FF4E043C4F204034FF468
S32D0000E558E042C4F2040202F5805202F13402126842F4806203F5805303F134031A6083E0FA684FF43043C4F292
S32D0000E58006039A4214D14FF4E043C4F204034FF4E042C4F2040202F5805202F13402126842F4006203F5805390
S32D0000E5A803F134031A6067E0FA684FF44043C4F206039A4214D14FF4E043C4F204034FF4E042C4F2040202F576
S32D0000E5D0805202F13402126842F4805203F5805303F134031A604BE0FA684FF45043C4F206039A4214D14FF40A
S32D0000E5F8E043C4F204034FF4E042C4F2040202F5805202F13402126842F4005203F5805303F134031A602FE081
S32D0000E620FA684FF42043C4F20E039A4214D14FF4E043C4F204034FF4E042C4F2040202F5805202F12802126898
S32D0000E64842F4806203F5805303F128031A6013E04FF4E043C4F204034FF4E042C4F2040202F5805202F128020B
S32D0000E670126842F4006203F5805303F128031A60FB68DB78DBB223F00C03DAB2FB68DA70FB684FF000029A70BA
S32D0000E698BB684FF47A7202FB03F27B684FEA031392FBF3F39CB2FB681B78DBB223F01F03FB75234603F4F8534A
S32D0000E6C04FEA2323DBB203F01F03DAB2FB7D1343DAB2FB681A70E2B2FB685A70BB684FF4FA4202FB03F27B6800
S32D0000E6E84FEA031392FBF3F39AB2234619464FEAC121CB1A4FEA43139BB2D3189CB2FB689B7ADBB223F01F03DF
S32D0000E710FB75E3B203F01F03DAB2FB7D1343DAB2FB689A72FB68DB78DBB243F00C03DAB2FB68DA7007F1180797
S32D0000E738BD4690BC704700BF80B483B000AF786000BF7B681B79DBB203F02003002B14BF00230123DBB2002B2A
S32D0000E760F3D17B68DB79DBB2184607F10C07BD4680BC704780B483B000AF78600B46FB7000BF7B681B79DBB237
S32D0000E788DBB26FEA0303DBB24FEAD313DBB2002BF3D17B68FA78DA7107F10C07BD4680BC704700BF80B483B088
S32D0000E7B000AF78604FF4E043C4F204034FF4E042C4F2040202F5805202F13802126842F0010203F5805303F10C
S32D0000E7D838031A604FF00003C4F204037A689A604FF00003C4F204034FF005025A604FF00003C4F204034FF046
S32D0000E8000002C4F20402126842F001021A6000BF4FF00003C4F204031B6803F08003002B14BF00230123DBB27A
S32D0000E828002BF1D14FF00003C4F204034FF00002C4F20402126822F001021A6007F10C07BD4680BC704700BF10
S32D0000E85080B582B000AF786039607B68012B0AD13A684FF6FF739A4205D143F28C60C1F6FF7000F00FF807F1E8
S32D0000E8780807BD4680BD00BF80B500AF4FF001004FF6FF71FFF7E0FF80BD00BF80B483B000AF78607B684FF0AA
S32D0000E8A000021A707B68184607F10C07BD4680BC704700BF80B582B000AF78607B681B7883F00103DBB2002B2A
S32D0000E8C836D04FF4E043C4F2040303F5805303F128034FF400621A604FF45043C4F204034FF440721A624FF4A9
S32D0000E8F05043C4F204034FF440725A6243F29063C1F6FF731B684FEAD372D3184FEA63034FF43040C4F20E00A6
S32D0000E91819464FF46142FFF709FE4FF0640000F071F87B684FF001021A704FF0010301E04FF00003184607F128
S32D0000E9400807BD4680BD00BF80B487B000AFF860B9607A60FA6844F6D353C1F26203A3FB02134FEA9312BB68A8
S32D0000E968D3187B61FA6844F6D353C1F26203A3FB02134FEA93134FF47A7101FB03F3D31AFB60FB684FEAC33255
S32D0000E99044F6D353C1F26203A3FB02134FEA93127B68D3183B613B694FEAD3337A69D3187B613B694FEA4343F6
S32D0000E9B84FEA53433B614FF45043C4F203031B681A467B699A4211D34FF45043C4F203031B681A467B699A4278
S32D0000E9E00BD14FF45043C4F203035B681A463B699A4202D24FF0010301E04FF00003002BDDD107F11C07BD46C7
S32D0000EA0880BC704780B584B000AF78604FF45043C4F203031B68FB604FF45043C4F203035B68BB607B681846DC
S32D0000EA30F968BA68FFF788FF07F11007BD4680BD80B483B000AF4FF45043C4F203031B684FF47A7202FB03F31C
S32D0000EA587B604FF45043C4F203035B684FF47A7202FB03F34FEAD3337A68D3187B607B68184607F10C07BD4608
S32D0000EA8080BC704780B483B000AF78607B68184607F10C07BD4680BC704700BF80B483B000AF78600B46FB70DC
S32D0000EAA87B68FA781A707B681B781A4645F26413C0F201039B5C042B00F2F98001A252F823F000BFE1EA00000C
S32D0000EAD03FEB00009DEB0000FBEB000059EC00004FF41043C4F204037A681278114645F2A812C0F2010252F835
S32D0000EAF8212040F2031143F822104FF47043C4F20F034FF47042C4F20F02526911467A681278104645F2A812BD
S32D0000EB20C0F2010252F8202002F01F024FF0010000FA02F26FEA02020A405A61BBE04FF42043C4F204037A6805
S32D0000EB481278114645F2A812C0F2010252F8212040F2031143F822104FF24003C4F20F034FF24002C4F20F0244
S32D0000EB70526911467A681278104645F2A812C0F2010252F8202002F01F024FF0010000FA02F26FEA02020A408B
S32D0000EB985A618CE04FF43043C4F204037A681278114645F2A812C0F2010252F8212040F2031143F822104FF2CD
S32D0000EBC08003C4F20F034FF28002C4F20F02526911467A681278104645F2A812C0F2010252F8202002F01F023B
S32D0000EBE84FF0010000FA02F26FEA02020A405A615DE04FF44043C4F204037A681278114645F2A812C0F2010246
S32D0000EC1052F8212040F2031143F822104FF2C003C4F20F034FF2C002C4F20F02526911467A681278104645F2F7
S32D0000EC38A812C0F2010252F8202002F01F024FF0010000FA02F26FEA02020A405A612EE04FF45043C4F2040371
S32D0000EC607A681278114645F2A812C0F2010252F8212040F2031143F822104FF47143C4F20F034FF47142C4F274
S32D0000EC880F02526911467A681278104645F2A812C0F2010252F8202002F01F024FF0010000FA02F26FEA0202AB
S32D0000ECB00A405A6100BF07F10C07BD4680BC704780B485B000AF78604FF00003FB607B681B781A4645F2641360
S32D0000ECD8C0F201039B5C042B00F2868001A252F823F000BF01ED000031ED000061ED000091ED0000C1ED0000F5
S32D0000ED004FF47043C4F20F031B691A467B681B78194645F2A813C0F2010353F8213003F01F034FF0010101FAD9
S32D0000ED2803F31340FB605FE04FF24003C4F20F031B691A467B681B78194645F2A813C0F2010353F8213003F09E
S32D0000ED501F034FF0010101FA03F31340FB6047E04FF28003C4F20F031B691A467B681B78194645F2A813C0F283
S32D0000ED78010353F8213003F01F034FF0010101FA03F31340FB602FE04FF2C003C4F20F031B691A467B681B78A3
S32D0000EDA0194645F2A813C0F2010353F8213003F01F034FF0010101FA03F31340FB6017E04FF47143C4F20F03F7
S32D0000EDC81B691A467B681B78194645F2A813C0F2010353F8213003F01F034FF0010101FA03F31340FB6000BF6C
S32D0000EDF0FB68002B0CBF00230123DBB2184607F11407BD4680BC704780B483B000AF78600B46FB707B68FA7862
S32D0000EE181A707B68184607F10C07BD4680BC704780B586B000AF78607B681B781A4645F22823C0F2010353F8B5
S32D0000EE4022303B617B681B781A4645F28413C0F201039B5CFB733B69DBB203F01F03DAB243F2AC63C1F6FF73B8
S32D0000EE681A723B69DBB203F01F03DAB243F2AC63C1F6FF735A72FB7B002B1ED14FF43040C4F2030043F2AC61A7
S32D0000EE90C1F6FF7100F040FC4FF43043C4F203031B6803F08003002B14BF00230123DBB2002BF1D14FF4304321
S32D0000EEB8C4F203031B697B611DE04FF43040C4F20B0043F2AC61C1F6FF7100F021FC4FF43043C4F20B031B682C
S32D0000EEE003F08003002B14BF00230123DBB2002BF1D14FF43043C4F20B031B697B617B69184607F11807BD4699
S32D0000EF0880BD00BF98B500AF43F29C63C1F6FF734FF05C021A7043F29C63C1F6FF734FF010025A7043F29C63B3
S32D0000EF30C1F6FF7341F234225A8043F29C63C1F6FF7345F278629A8043F29C63C1F6FF734FF010029A7143F2B1
S32D0000EF589C63C1F6FF734FF00702DA7143F29C63C1F6FF734FF4C022DA6043F29C63C1F6FF734FF01F021A72CB
S32D0000EF8043F29C63C1F6FF734FF01F025A724FF43040C4F2030043F29C61C1F6FF7100F0BBFB4FF43040C4F206
S32D0000EFA80B0043F29C61C1F6FF7100F0B1FB4FF43040C4F20B0000F005FB4FF43040C4F2030000F0FFFA4FF43F
S32D0000EFD03040C4F20B0043F29C61C1F6FF7100F09BFB4FF43040C4F2030043F29C61C1F6FF7100F091FB43F28D
S32D0000EFF8AC62C1F6FF7243F29C63C1F6FF7314460FCB84E80F0043F2AC63C1F6FF734FF05C021A7043F2AC63D1
S32D0000F020C1F6FF734FF00402DA7198BD80B500AF43F2C063C1F6FF731B6803F1010243F2C063C1F6FF731A60DA
S32D0000F04800F072F94FF4E043C4F203034FF00102C3F80C2180BD00BF80B500AF4FF4E043C4F203034FF00102AF
S32D0000F0701A6048F2A060C0F2010000F023F84FF4E043C4F203034FF00302C3F808214FF46143CEF200034FF4C9
S32D0000F0986142CEF20002D2F8882142F01002C3F888214FF46143CEF200034FF46142CEF20002926842F010023A
S32D0000F0C09A6080BD80B483B000AF78604FF4E043C4F203037A68C3F8002107F10C07BD4680BC704780B584B0B3
S32D0000F0E800AF78600B46FB707A68FB7810461946FFF786FE43F2BC63C1F6FF731B68002B32D17B684FF00002E1
S32D0000F1101A617B684FF000025A614FF0140004F021FD02467B689A617B689B697A689A607B689B694FF0010200
S32D0000F1385A607B689B69FA781A707B689B694FF00002DA607B689B694FF000021A617B689B694FF000025A7015
S32D0000F1607B689A6943F2BC63C1F6FF731A6071E043F2BC63C1F6FF731B68FB6002E0FB68DB68FB60FB681B781F
S32D0000F188FA789A4206D0FB68DB68002B02D04FF0010301E04FF00003002BECD1FB681B78FA789A4224D17B6828
S32D0000F1B0FA689A617B689B699B68BB6002E0BB681B69BB60BB681B69002B0CBF00230123DBB2002BF3D1BB68A8
S32D0000F1D87A681A617B68BA685A617B684FF000021A617B689B695A6802F101025A602DE07B684FF000021A6148
S32D0000F2007B684FF000025A614FF0140004F0AAFC02467B689A617B689B697A689A607B689B694FF001025A6048
S32D0000F2287B689B69FA781A707B689B694FF00002DA607B689B694FF000025A707B689B69FA681A617B689A69D7
S32D0000F250FB68DA60786800F0EBF87B684FF48C429A607B684FF45242DA607B68184607F11007BD4680BD00BF0F
S32D0000F27880B586B000AF78607B685B697B617B681B693B617B69002B31D13B69002B2ED17B689B691B69FB604B
S32D0000F2A07B689B69DB68BB60FB68002B0AD1BB68002B07D143F2BC63C1F6FF734FF000021A6012E0FB68002BB4
S32D0000F2C803D0FB68BA68DA6005E043F2BC63C1F6FF73BA681A60BB68002B02D0BB68FA681A617B689B69184623
S32D0000F2F004F05EFC16E07B69002B03D07B693A691A6103E07B689B693A699A603B69002B02D03B697A695A617E
S32D0000F3187B689B695A6802F1FF325A607B68184607F11807BD4680BD80B584B000AF43F2BC63C1F6FF731B6890
S32D0000F340FB6029E0FB685B78FB71FB689B68184600F02EF80346BB71BB79002B19D0FB685B68012B15DDFB685B
S32D0000F3689B681B69BB6008E0BB685B6803F10102BB685A60BB681B69BB60BB68002B0CBF00230123DBB2002B59
S32D0000F390EED1FB68DB68FB60FB68002B0CBF00230123DBB2002BCDD107F11007BD4680BD80B584B000AF78605A
S32D0000F3B87868FFF735FD0346FB607B689B695B78FB72FB7A002B12D17B68DA68FB689A420DDA7B689B694FF060
S32D0000F3E001025A707B685B6803F101027B685A604FF0010317E0FB7A012B12D17B689A68FB689A420DDD7B6849
S32D0000F4089B694FF000025A707B685B6803F101027B685A604FF0010301E04FF00003184607F11007BD4680BD7A
S32D0000F43080B483B000AF78607B684FF000025A6007F10C07BD4680BC704700BF80B582B000AF78600B46FB7078
S32D0000F4587B681846FFF712FB7B6803F101031846FFF70CFB7B6803F102031846FFF706FBFB78032B66D801A259
S32D0000F48052F823F095F40000C3F40000F1F400001FF500007B6818464FF00001FFF7FEFA7B6803F10103184620
S32D0000F4A84FF00101FFF7F6FA7B6803F1020318464FF00201FFF7EEFA44E07B6818464FF00801FFF7E7FA7B684E
S32D0000F4D003F1010318464FF00901FFF7DFFA7B6803F1020318464FF00A01FFF7D7FA2DE07B6818464FF01001B7
S32D0000F4F8FFF7D0FA7B6803F1010318464FF01101FFF7C8FA7B6803F1020318464FF01201FFF7C0FA16E07B68CF
S32D0000F52018464FF01801FFF7B9FA7B6803F1010318464FF01901FFF7B1FA7B6803F1020318464FF01A01FFF7A1
S32D0000F548A9FA00BF7B68184607F10807BD4680BD80B582B000AF78607B681846FFF7ACFB034683F00103DBB292
S32D0000F570184607F10807BD4680BD00BF80B582B000AF78607B6803F101031846FFF798FB034683F00103DBB20C
S32D0000F598184607F10807BD4680BD00BF80B582B000AF78607B6803F102031846FFF784FB034683F00103DBB2F7
S32D0000F5C0184607F10807BD4680BD00BF80B485B000AF78607B681B6A23F040027B681A627B685B6A23F00B02E5
S32D0000F5E87B685A627B685B6A43F007027B685A627B685B6A43F080027B685A627B681B6803F08003002B14BFFD
S32D0000F61000230123DBB2002BF4D17B685B6A03F04003002B0CBF00230123DBB2002B02D04FF0010369E04FF098
S32D0000F6380003FB817B68DB6CFB817B689B6C9AB2FB89D318FB817B685B6C9AB2FB89D318FB817B681B6C9AB2C7
S32D0000F660FB89D318FB817B68DB6B9AB2FB89D318FB817B689B6B9AB2FB89D318FB81FB894FEA5303FB81FB89FE
S32D0000F6886FEA43436FEA5343FB81FA897B68DA624FF00003FB817B68DB6EFB817B689B6E9AB2FB89D318FB81DF
S32D0000F6B07B685B6E9AB2FB89D318FB817B681B6E9AB2FB89D318FB817B68DB6D9AB2FB89D318FB817B689B6D59
S32D0000F6D89AB2FB89D318FB81FB894FEA5303FB81FB896FEA43436FEA5343FB81FA897B681A637B685B6A23F0D2
S32D0000F70080027B685A624FF00003184607F11407BD4680BC704700BF80B483B000AF786039603B681B781A4635
S32D0000F7287B689A603B685B781A467B68DA603B685B881A467B689A613B689B881A467B68DA613B689B791A46C4
S32D0000F7507B681A623B68DB791A467B685A623B68DA687B681A653B681B7A1A467B681A603B685B7A1A467B683F
S32D0000F7785A6007F10C07BD4680BC704780B483B000AF78607B68184607F10C07BD4680BC704700BF80B582B052
S32D0000F7A000AF786039607B68012B0AD13A684FF6FF739A4205D143F2C460C1F6FF70FFF7E1FF07F10807BD46C7
S32D0000F7C880BD00BF80B500AF4FF001004FF6FF71FFF7E0FF80BD00BF80B483B000AF78600B46FB707B68FA786E
S32D0000F7F01A707B684FF4FA725A807B6840F6C4129A807B68044A9A607B68184607F10C07BD4680BC704700BFC0
S32D0000F818000080BF80B582B000AF78604FF43040C4F20E004FF07F01FEF7A0FF4FF43040C4F20E004FF009010B
S32D0000F840FEF798FF7B681B784FF43040C4F20E001946FEF78FFF4FF43040C4F20E004FF00101FEF787FF4FF4C9
S32D0000F8683040C4F20E004FF0FF01FEF77FFF07F10807BD4680BD00BF80B582B000AF78604FF43043C4F2040325
S32D0000F8904FF48072DA604FF42043C4F204034FF480729A644FF42043C4F204034FF480721A644FF42043C4F2D3
S32D0000F8B804034FF480725A644FF42043C4F204034FF48072DA604FF28003C4F20F034FF28002C4F20F02526985
S32D0000F8E042F008025A614FF24003C4F20F034FF24002C4F20F02526942F480225A614FF24003C4F20F034FF292
S32D0000F9084002C4F20F02526942F480325A614FF24003C4F20F034FF24002C4F20F02526942F400325A614FF2B5
S32D0000F9304003C4F20F034FF24002C4F20F02126842F008021A604FF24003C4F20F034FF24002C4F20F025269D3
S32D0000F95842F008025A614FF28003C4F20F034FF28002C4F20F02126842F008021A604FF42043C4F204034FF49E
S32D0000F98080725A624FF42043C4F204034FF480721A624FF43043C4F204034FF480721A614FF43043C4F2040301
S32D0000F9A84FF480725A614FF43043C4F204034FF480729A614FF43043C4F204034FF48072DA614FF43043C4F24F
S32D0000F9D004034FF480721A634FF43043C4F204034FF480725A634FF43043C4F204034FF480729A634FF4304390
S32D0000F9F8C4F204034FF48072DA634FF43043C4F204034FF480721A644FF43043C4F204034FF480725A644FF4E3
S32D0000FA203043C4F204034FF480729A644FF43043C4F204034FF48072DA644FF44043C4F204034FF480721A603D
S32D0000FA484FF44043C4F204034FF480729A604FF44043C4F204034FF48072DA604FF44043C4F204034FF4807234
S32D0000FA701A614FF24003C4F20F034FF24002C4F20F02526942F440725A614FF28002C4F20F024FF28003C4F2F5
S32D0000FA980F035B6919464FF2F003C0F20F030B4353614FF2C003C4F20F034FF2C002C4F20F02526942F01D026F
S32D0000FAC05A6178684FF0E20100F0D6FC78684FF01D0100F015FE78684FF0020100F010FE78684FF0040100F025
S32D0000FAE80BFE78684FF0E00100F0C2FC78684FF0010100F001FE4FF06400FEF783FF78684FF0E00100F0B4FC6F
S32D0000FB1078684FF0030100F0F3FD78684FF0010100F0AAFC4FF00100FEF770FF78684FF0E60100F0A1FC7868F6
S32D0000FB384FF0010100F0E0FD78684FF0A00100F0DBFD78684FF0FF0100F0D6FD78684FF0B00100F08DFC7868FE
S32D0000FB604FF01C0100F0CCFD78684FF00F0100F0C7FD78684FF0010100F0C2FD78684FF03F0100F0BDFD7868C6
S32D0000FB884FF0000100F0B8FD78684FF0EF0100F0B3FD78684FF0000100F0AEFD78684FF0B40100F065FC7868FB
S32D0000FBB04FF0010100F0A4FD78684FF0990100F09FFD78684FF0000100F09AFD78684FF0450100F095FD7868A2
S32D0000FBD84FF0020100F090FD78684FF0000100F08BFD78684FF0000100F086FD78684FF0000100F081FD7868A7
S32D0000FC004FF0B60100F038FC78684FF0010100F077FD78684FF0090100F072FD78684FF0000100F06DFD786855
S32D0000FC284FF00E0100F068FD78684FF0020100F063FD78684FF0000100F05EFD78684FF0000100F059FD7868E8
S32D0000FC504FF0BA0100F010FC78684FF00F0100F04FFD4FF06400FEF7D1FE78684FF03A0100F002FC78684FF057
S32D0000FC78600100F041FD78684FF02A0100F0F8FB78684FF0000100F037FD78684FF0000100F032FD78684FF000
S32D0000FCA0010100F02DFD78684FF03F0100F028FD78684FF02B0100F0DFFB78684FF0000100F01EFD78684FF047
S32D0000FCC8000100F019FD78684FF0000100F014FD78684FF0EF0100F00FFD78684FF0360100F0C6FB78684FF0B5
S32D0000FCF0000100F005FD78684FF0F00100F0BCFB78684FF0040100F0FBFC78684FF0B80100F0B2FB78684FF09D
S32D0000FD180F0100F0F1FC78684FF0010100F0ECFC4FF24003C4F20F034FF24002C4F20F02126842F008021A6011
S32D0000FD404FF06400FEF762FE78684FF0360100F093FB78684FF0000100F0D2FC78684FF0F00100F089FB786887
S32D0000FD684FF0040100F0C8FC43F2C860C1F6FF704FF0010100F0AAF943F2C860C1F6FF704FF06F014FF01E028D
S32D0000FD9000F0A4F843F2C860C1F6FF704FF0000100F0F6F943F2C860C1F6FF7044F6E071C0F201014FF05A02BA
S32D0000FDB84FF0AF0300F010FA78684FF0290100F057FB4FF06400FEF71DFE78684FF0BE0100F04EFB78684FF0BE
S32D0000FDE00E0100F08DFC78684FF0F00100F088FC78684FF0010100F083FC78684FF0000100F07EFC78684FF0B0
S32D0000FE08000100F079FC78684FF00F0100F074FC43F2C860C1F6FF704FF0010100F0B4F943F2C860C1F6FF70F3
S32D0000FE304FF0000100F084F907F10807BD4680BD80B582B000AF78607B684FF00002DA617B684FF001021A62C2
S32D0000FE587B684FF00E025A607B684FF01A029A607B684FF000025A617B684FF000029A617B684FF4A072DA60E8
S32D0000FE807B684FF0F0021A617B684FF000021A70786801F05BFA7B68184607F10807BD4680BD00BF80B582B043
S32D0000FEA800AF786043F20473C1F6FF731B7883F00103DBB2002B09D043F20473C1F6FF734FF001021A707868B4
S32D0000FED0FFF7D6FC07F10807BD4680BD80B58AB002AFF860B9607A604FF07E030093F868B9687A684FF0620330
S32D0000FEF800F088FE4FF00003FB614FF00003BB6155E04FF000037B6145E040F20043C1F6FF73FA699B181B78AB
S32D0000FF20002B09D14FF0FF03FB744FF0FF03BB744FF0FF037B741BE040F20043C1F6FF73FA699B181B78012BF0
S32D0000FF4809D14FF0D403FB744FF00003BB744FF026037B7408E04FF0B503FB744FF0BA03BB744FF0B0037B740A
S32D0000FF70F97CBA7C7B7CF86800F08AF80246FB68DA61F86801F0E2F9F86801F07FF8FB6903F10103FB617B6979
S32D0000FF9803F101037B617B69612BCCBF00230123DBB2002BB1D1BB6903F10103BB61BB697D2BCCBF0023012315
S32D0000FFC0DBB2002BA1D107F12007BD4680BD00BF80B485B000AF78600B46FB70FB78062B2ED801A252F823F075
S32D0000FFE80D00010005000100150001001D000100250001002D000100350001006FF07F43FB6019E04FF0000362
S32D00010010FB6015E04FF47F03FB6011E04FF47F43FB600DE04FF0FF03FB6009E04FF41903FB6005E049F6991304
S32D00010038C0F29903FB6000BFFB68184607F11407BD4680BC704700BF80B584B000AF786039603B6803F47F0303
S32D000100604FEA1343FB733B6803F47F434FEA1323BB733B687B73F97BBA7B7B7B786800F007F80346184607F1DD
S32D000100881007BD4680BD00BF80B487B000AF7860F970BA707B70FB784FEAA3037B61BB784FEAA3033B617B78F4
S32D000100B04FEAA303FB607B694FEA03323B694FEA83131A43FB681343184607F11C07BD4680BC704780B582B036
S32D000100D800AF78600B46FB70FB7878681946FFF773FF03467868194600F004F807F10807BD4680BD80B582B07A
S32D0001010000AF7860396078683968FFF7A1FF02467B681A62786801F019F9786800F01AFC07F10807BD4680BDE2
S32D0001012880B582B000AF7860786800F00FFC07F10807BD4680BD00BF80B582B000AF78600B46FB70FB787868DC
S32D000101501946FFF73DFF03467868194600F004F807F10807BD4680BD80B582B000AF7860396078683968FFF736
S32D000101786BFF02467B681A62786801F0E3F807F10807BD4680BD00BF80B582B000AF78600B46FB70FB78786898
S32D000101A01946FFF715FF03467868194600F004F807F10807BD4680BD80B582B000AF7860396078683968FFF70E
S32D000101C843FF02467B68DA61786801F0BBF807F10807BD4680BD00BF80B586B000AFF860B9607A603B604FF097
S32D000101F000037B6110E07B69BA68D3181B78F86879683A6800F0A8FD7B6803F10C037B607B6903F101037B619C
S32D000102187B69BA68D3181B78002B0CBF00230123DBB2002BE3D107F11807BD4680BD00BF80B584B000AF786084
S32D0001024039604FF00003FB60786800F0AFFC11E07B6859697B689A69FB683868C3181B78786800F059FD7868EB
S32D0001026800F0B6FCFB6803F10103FB60FB683A68D3181B78002B0CBF00230123DBB2002BE2D107F11007BD46D2
S32D0001029080BD00BF80B590B000AF7860396007F10C03184644F6EC71C0F201013A6802F04DFB07F10C0378683B
S32D000102B81946FFF7BDFF07F14007BD4680BD00BF90B593B000AF786039604FF001031C4638683049FCF758FB1C
S32D000102E00346002B02D14FF000031C46E3B2002B23D03868FCF760FB03467B64786CFCF741F9034638681946E2
S32D00010308FCF786F8034618462349FCF78BF903461846FCF74DFB03463B6407F10C03184644F6FC71C0F2010141
S32D000103307A6C3B6C02F00AFB26E03B6883F000433B603868FCF738FB03467B64786CFCF719F903463868194601
S32D00010358FCF75EF8034618460F49FCF763F903461846FCF725FB03463B6407F10C03184644F6F071C0F2010189
S32D000103807A6C3B6C02F0E2FA07F10C0378681946FFF752FF07F14C07BD4690BD0000000000007A4480B582B0A6
S32D000103A800AF78600B46FB70786800F0FBFB7B6859697B689A69FB78786800F0A9FC786800F006FC07F10807D1
S32D000103D0BD4680BD80B582B000AF78603960786800F0E4FB78683968FFF726FF786800F0C5FB07F10807BD4652
S32D000103F880BD00BF80B582B000AF78603960786800F0D0FB78683968FFF740FF786800F0B1FB07F10807BD467C
S32D0001042080BD00BF80B582B000AF78603960786800F0BCFB78683968FFF746FF786800F09DFB07F10807BD4675
S32D0001044880BD00BF80B582B000AF78600B46FB70786800F0A7FBFB7878681946FFF79EFF786800F087FB07F1DE
S32D000104700807BD4680BD00BF80B483B000AF78600B46FB704FF28003C4F20F034FF28002C4F20F02126822F003
S32D0001049808021A604FF24003C4F20F034FF24002C4F20F02126822F480221A604FF24003C4F20F034FF24002A0
S32D000104C0C4F20F02126842F480321A604FF24003C4F20F034FF24002C4F20F02126822F440721A604FF2800354
S32D000104E8C4F20F034FF28002C4F20F02126822F4425222F070021A604FF24003C4F20F034FF24002C4F20F02DB
S32D0001051012681146FA7802F00102D2B2002A02D04FF4007201E04FF000020A431A604FF24003C4F20F034FF2D9
S32D000105384002C4F20F0212681146FA7802F00202002A02D04FF4807201E04FF000020A431A604FF28003C4F2BE
S32D000105600F034FF28002C4F20F0212681146FA7802F00402002A02D04FF0100201E04FF000020A431A604FF21E
S32D000105888003C4F20F034FF28002C4F20F0212681146FA7802F00802002A02D04FF0200201E04FF000020A4364
S32D000105B01A604FF28003C4F20F034FF28002C4F20F0212681146FA7802F01002002A02D04FF0400201E04FF0A8
S32D000105D800020A431A604FF28003C4F20F034FF28002C4F20F0212681146FA7802F02002002A02D04FF0800201
S32D0001060001E04FF000020A431A604FF28003C4F20F034FF28002C4F20F0212681146FA7802F04002002A02D059
S32D000106284FF4805201E04FF000020A431A604FF28003C4F20F034FF28002C4F20F0212681146FA7852B2002A1E
S32D0001065002DA4FF4005201E04FF000020A431A604FF24003C4F20F034FF24002C4F20F02126822F400321A604F
S32D000106784FF24003C4F20F034FF24002C4F20F02126842F400321A604FF28003C4F20F034FF28002C4F20F024B
S32D000106A0126842F008021A604FF24003C4F20F034FF24002C4F20F02126842F440721A604FF28003C4F20F03FD
S32D000106C84FF28002C4F20F02126842F4425242F070021A604FF24003C4F20F034FF24002C4F20F02126842F4D1
S32D000106F080221A6007F10C07BD4680BC704700BF80B483B000AF78600B46FB704FF28003C4F20F034FF2800206
S32D00010718C4F20F02126822F008021A604FF24003C4F20F034FF24002C4F20F02126842F480321A604FF24003E5
S32D00010740C4F20F034FF24002C4F20F02126842F480221A604FF24003C4F20F034FF24002C4F20F02126822F486
S32D0001076840721A604FF28003C4F20F034FF28002C4F20F02126822F4425222F070021A604FF24003C4F20F03B2
S32D000107904FF24002C4F20F0212681146FA7802F00102D2B2002A02D04FF4007201E04FF000020A431A604FF259
S32D000107B84003C4F20F034FF24002C4F20F0212681146FA7802F00202002A02D04FF4807201E04FF000020A43E4
S32D000107E01A604FF28003C4F20F034FF28002C4F20F0212681146FA7802F00402002A02D04FF0100201E04FF0B2
S32D0001080800020A431A604FF28003C4F20F034FF28002C4F20F0212681146FA7802F00802002A02D04FF0200246
S32D0001083001E04FF000020A431A604FF28003C4F20F034FF28002C4F20F0212681146FA7802F01002002A02D057
S32D000108584FF0400201E04FF000020A431A604FF28003C4F20F034FF28002C4F20F0212681146FA7802F020029A
S32D00010880002A02D04FF0800201E04FF000020A431A604FF28003C4F20F034FF28002C4F20F0212681146FA784A
S32D000108A802F04002002A02D04FF4805201E04FF000020A431A604FF28003C4F20F034FF28002C4F20F02126863
S32D000108D01146FA7852B2002A02DA4FF4005201E04FF000020A431A604FF24003C4F20F034FF24002C4F20F0212
S32D000108F8126822F400321A604FF24003C4F20F034FF24002C4F20F02126842F400321A604FF28003C4F20F0317
S32D000109204FF28002C4F20F02126842F008021A604FF24003C4F20F034FF24002C4F20F02126822F480221A60AC
S32D0001094807F10C07BD4680BC704700BF80B586B000AF78607B684FF000025A617B684FF000029A617B681B6A68
S32D00010970FB60FB68FB72FB684FEA1323BB72FB684FEA1343DBB203F003037B7278684FF02A01FFF771FD78683B
S32D000109984FF00001FFF7B0FE78684FF00001FFF7ABFE78684FF00101FFF7A6FE78684FF03F01FFF7A1FE7868FE
S32D000109C04FF02B01FFF758FD78684FF00001FFF797FE78684FF00001FFF792FE78684FF00001FFF78DFE786880
S32D000109E84FF0EF01FFF788FE78684FF02C01FFF73FFD4FF24003C4F20F034FF24002C4F20F02126822F44072DF
S32D00010A101A604FF28002C4F20F024FF28003C4F20F031B68194640F60F73CFF6F0730B4013604FF2C003C4F2ED
S32D00010A380F034FF2C002C4F20F02126822F01D021A604FF24003C4F20F034FF24002C4F20F02126811467A6845
S32D00010A60126B0A431A604FF28003C4F20F034FF28002C4F20F02126811467A68526B0A431A604FF2C003C4F21C
S32D00010A880F034FF2C002C4F20F02126811467A68926B0A431A604FF28003C4F20F034FF28002C4F20F0212685C
S32D00010AB022F008021A604FF24003C4F20F034FF24002C4F20F02126842F480221A604FF000037B612DE04FF0B5
S32D00010AD800033B611BE04FF24003C4F20F034FF24002C4F20F02126822F400321A604FF24003C4F20F034FF2F6
S32D00010B004002C4F20F02126842F400321A603B6903F101033B613A6940F23F139A428CBF00230123DBB2002BDC
S32D00010B28D9D17B6903F101037B617B69EF2B8CBF00230123DBB2002BC9D14FF28003C4F20F034FF28002C4F255
S32D00010B500F02126842F008021A604FF24003C4F20F034FF24002C4F20F02126822F480221A6007F11807BD46D9
S32D00010B7880BD00BF80B483B000AF78607B689B69002B09DD7B685B6903F101027B685A617B684FF000029A6111
S32D00010BA007F10C07BD4680BC704700BF80B582B000AF78607B685A697B685B689A4206DB7B684FF000025A6190
S32D00010BC87868FFF7C3FE07F10807BD4680BD00BF80B582B000AF78607B689B6903F101027B689A617B689A69D1
S32D00010BF07B689B689A4205D17868FFF7BFFF7868FFF7D4FF07F10807BD4680BD80B588B000AFF860B9607A6053
S32D00010C183B60FB681B78022B03D0FB681B78032B13D17B68FB61BA6AFB69D31803F1FF33BB61FB68DA68BB6858
S32D00010C40D31A3B613B683A69D31A03F101037B610FE0BB68FB613A68FB69D31803F1FF33BB617B687B61BA6A71
S32D00010C687B69D31803F1FF333B61F8684FF02A01FFF7FEFBFB6903F470634FEA1323DBB2F8681946FFF738FDFF
S32D00010C90FB69DBB2F8681946FFF732FDBB6903F470634FEA1323DBB2F8681946FFF728FDBB69DBB2F86819462C
S32D00010CB8FFF722FDF8684FF02B01FFF7D9FB7B6903F470634FEA1323DBB2F8681946FFF713FD7B69DBB2F86823
S32D00010CE01946FFF70DFD3B6903F470634FEA1323DBB2F8681946FFF703FD3B69DBB2F8681946FFF7FDFCF86828
S32D00010D084FF02C01FFF7B4FB07F12007BD4680BD80B584B000AFF860B9607A60FB707A6813464FEA43039B1811
S32D00010D304FEA830303F10201BA6813464FEA03139B1803F10302FB78F86800F005F807F11007BD4680BD00BF9A
S32D00010D5880B58EB002AFF860B9607A60FB70FB780A2B06D1F868FFF71DFFF868FFF702FF25E1FB787D2B02D84F
S32D00010D80FB781F2B02D84FF02003FB70FB78A3F12003FB704FF011030093F868B9687A684FF00C03FFF732FF8D
S32D00010DA8FA7813464FEA83039A1843F23C43C1F6FF739B5C3B75FA7813464FEA83039B1803F1010243F23C4374
S32D00010DD0C1F6FF739B5C7B75FA7813464FEA83039B1803F1020243F23C43C1F6FF739B5CBB75FA7813464FEAA7
S32D00010DF883039B1803F1030243F23C43C1F6FF739B5CFB75FA7813464FEA83039B1803F1040243F23C43C1F6B4
S32D00010E20FF739B5C3B764FF00003BB62A8E0F86800F0DCF9F86800F0CBF84FF0000387F82F304FF000037B622B
S32D00010E4831E007F114027B6AD3181B7803F00103FB76FB7E002B11D097F82F3083F00103DBB2002B03D0F868BC
S32D00010E7000F00CF902E0F86800F0AAF8F86800F0A7F80DE097F82F30002B03D0F86800F0ADF902E0F86800F09A
S32D00010E989BF8F86800F098F8FB7E87F82F307B6A03F101037B627B6A042BCCBF00230123DBB2002BC5D197F8E4
S32D00010EC02F30002B03D0F86800F090F902E0F86800F07EF8F86800F07BF84FF0000387F82F304FF000033B6263
S32D00010EE83EE007F114023B6AD3181B7803F00103BB76BB7E002B11D097F82F3083F00103DBB2002B03D0F868CF
S32D00010F1000F0BCF802E0F86800F05AF8F86800F057F80DE097F82F30002B03D0F86800F05DF902E0F86800F03A
S32D00010F384BF8F86800F048F8BB7E87F82F3007F114023B6AD3181B784FEA6303DAB207F114013B6ACB181A7025
S32D00010F603B6A03F101033B623B6A042BCCBF00230123DBB2002BB8D1BB6A03F10103BB62BB6A062BCCBF002303
S32D00010F880123DBB2002B7FF44EAFF86800F02AF94FF0000387F82F304FF00103FB6106E0F86800F011F8FB6919
S32D00010FB003F10103FB61FB69232BCCBF00230123DBB2002BF0D107F13007BD4680BD00BF80B483B000AF7860A5
S32D00010FD84FF24003C4F20F034FF24002C4F20F02126842F480321A604FF28003C4F20F034FF28002C4F20F0262
S32D00011000126822F008021A604FF24003C4F20F034FF24002C4F20F02126842F480221A604FF24003C4F20F0303
S32D000110284FF24002C4F20F02126822F400321A604FF24003C4F20F034FF24002C4F20F02126842F400321A6021
S32D000110504FF28003C4F20F034FF28002C4F20F02126842F008021A604FF24003C4F20F034FF24002C4F20F0295
S32D00011078126822F480221A6007F10C07BD4680BC704700BF80B483B000AF78604FF24003C4F20F034FF2400220
S32D000110A0C4F20F02126842F480321A604FF28003C4F20F034FF28002C4F20F02126822F008021A604FF24003D4
S32D000110C8C4F20F034FF24002C4F20F02126842F480221A604FF24003C4F20F034FF24002C4F20F02126822F4F5
S32D000110F040721A604FF28002C4F20F024FF28003C4F20F031B68194640F60F73CFF6F0730B4013604FF2C0030B
S32D00011118C4F20F034FF2C002C4F20F02126822F01D021A604FF24003C4F20F034FF24002C4F20F02126811468A
S32D000111407A68526A0A431A604FF28003C4F20F034FF28002C4F20F02126811467A68926A0A431A604FF2C0038B
S32D00011168C4F20F034FF2C002C4F20F02126811467A68D26A0A431A604FF24003C4F20F034FF24002C4F20F027A
S32D00011190126822F400321A604FF24003C4F20F034FF24002C4F20F02126842F400321A604FF28003C4F20F0376
S32D000111B84FF28002C4F20F02126842F008021A604FF24003C4F20F034FF24002C4F20F02126822F480221A600C
S32D000111E007F10C07BD4680BC704700BF80B483B000AF78604FF24003C4F20F034FF24002C4F20F02126842F4EC
S32D0001120880321A604FF28003C4F20F034FF28002C4F20F02126822F008021A604FF24003C4F20F034FF2400296
S32D00011230C4F20F02126842F480221A604FF24003C4F20F034FF24002C4F20F02126822F440721A604FF28002E7
S32D00011258C4F20F024FF28003C4F20F031B68194640F60F73CFF6F0730B4013604FF2C003C4F20F034FF2C002C5
S32D00011280C4F20F02126822F01D021A604FF24003C4F20F034FF24002C4F20F02126811467A68126B0A431A60C6
S32D000112A84FF28003C4F20F034FF28002C4F20F02126811467A68526B0A431A604FF2C003C4F20F034FF2C002FB
S32D000112D0C4F20F02126811467A68926B0A431A604FF24003C4F20F034FF24002C4F20F02126822F400321A60DF
S32D000112F84FF24003C4F20F034FF24002C4F20F02126842F400321A604FF28003C4F20F034FF28002C4F20F02BF
S32D00011320126842F008021A604FF24003C4F20F034FF24002C4F20F02126822F480221A6007F10C07BD4680BCE2
S32D00011348704700BF80B485B000AF78607B681B6AFB60FB68FB72FB684FEA1323BB72FB684FEA1343DBB203F00C
S32D0001137003037B727B684FF000025A627B684FF000029A627B684FF00002DA627B684FF000021A637B684FF038
S32D0001139800025A637B684FF000029A637B681A6BFB7A03F00103DBB2002B02D04FF4007301E04FF000031A43B2
S32D000113C07B681A637B681A6BFB7A03F00203002B02D04FF4807301E04FF000031A437B681A637B685A6BFB7A99
S32D000113E803F00403002B02D04FF0100301E04FF000031A437B685A637B685A6BFB7A03F00803002B02D04FF016
S32D00011410200301E04FF000031A437B685A637B685A6BFB7A03F01003002B02D04FF0400301E04FF000031A4348
S32D000114387B685A637B685A6BFB7A03F02003002B02D04FF0800301E04FF000031A437B685A637B685A6BFB7AB6
S32D0001146003F04003002B02D04FF4805301E04FF000031A437B685A637B685A6BFB7A5BB2002B02DA4FF400532D
S32D0001148801E04FF000031A437B685A637B685A6BBB7A03F00103DBB2002B02D04FF4804301E04FF000031A4331
S32D000114B07B685A637B685A6BBB7A03F00203002B02D04FF4004301E04FF000031A437B685A637B685A6BBB7A18
S32D000114D803F00403002B02D04FF4803301E04FF000031A437B685A637B685A6BBB7A03F00803002B02D04FF4BD
S32D00011500003301E04FF000031A437B685A637B685A6BBB7A03F01003002B02D04FF4802301E04FF000031A4323
S32D000115287B685A637B685A6BBB7A03F02003002B02D04FF4002301E04FF000031A437B685A637B689A6BBB7A61
S32D0001155003F04003002B02D04FF0010301E04FF000031A437B689A637B689A6BBB7A5BB2002B02DA4FF004031F
S32D0001157801E04FF000031A437B689A637B689A6B7B7A03F00103DBB2002B02D04FF0080301E04FF000031A43BC
S32D000115A07B689A637B689A6B7B7A03F00203002B02D04FF0100301E04FF000031A437B689A637B68DB69FB6036
S32D000115C8FB68FB72FB684FEA1323BB72FB684FEA1343DBB203F003037B727B685A6AFB7A03F00103DBB2002BF5
S32D000115F002D04FF4007301E04FF000031A437B685A627B685A6AFB7A03F00203002B02D04FF4807301E04FF0BE
S32D0001161800031A437B685A627B689A6AFB7A03F00403002B02D04FF0100301E04FF000031A437B689A627B68BD
S32D000116409A6AFB7A03F00803002B02D04FF0200301E04FF000031A437B689A627B689A6AFB7A03F01003002BB9
S32D0001166802D04FF0400301E04FF000031A437B689A627B689A6AFB7A03F02003002B02D04FF0800301E04FF04F
S32D0001169000031A437B689A627B689A6AFB7A03F04003002B02D04FF4805301E04FF000031A437B689A627B6805
S32D000116B89A6AFB7A5BB2002B02DA4FF4005301E04FF000031A437B689A627B689A6ABB7A03F00103DBB2002BB6
S32D000116E002D04FF4804301E04FF000031A437B689A627B689A6ABB7A03F00203002B02D04FF4004301E04FF0ED
S32D0001170800031A437B689A627B689A6ABB7A03F00403002B02D04FF4803301E04FF000031A437B689A627B6828
S32D000117309A6ABB7A03F00803002B02D04FF4003301E04FF000031A437B689A627B689A6ABB7A03F01003002B34
S32D0001175802D04FF4802301E04FF000031A437B689A627B689A6ABB7A03F02003002B02D04FF4002301E04FF096
S32D0001178000031A437B689A627B68DA6ABB7A03F04003002B02D04FF0010301E04FF000031A437B68DA627B68A7
S32D000117A8DA6ABB7A5BB2002B02DA4FF0040301E04FF000031A437B68DA627B68DA6A7B7A03F00103DBB2002BD5
S32D000117D002D04FF0080301E04FF000031A437B68DA627B68DA6A7B7A03F00203002B02D04FF0100301E04FF0AC
S32D000117F800031A437B68DA6207F11407BD4680BC704700BF80B582B000AF786039607B68012B0AD13A684FF623
S32D00011820FF739A4205D143F2C860C1F6FF70FEF707FB07F10807BD4680BD00BF80B500AF4FF001004FF6FF711C
S32D00011848FFF7E0FF80BD00BF80B582B000AF78600B46FB707A68FB7810461946FDF7D0FA7B68184607F10807E6
S32D00011870BD4680BD80B582B000AF786039607B68012B0CD13A684FF6FF739A4207D143F20870C1F6FF704FF077
S32D000118982001FFF7D9FF07F10807BD4680BD00BF80B500AF4FF001004FF6FF71FFF7DEFF80BD00BF80B483B01D
S32D000118C000AF78607B684FF000021A707B68184607F10C07BD4680BC704700BF80B582B000AF78607B681B785F
S32D000118E883F00103DBB2002B00F091807B684FF001021A704FF4E043C4F204034FF4E042C4F2040202F58052E5
S32D0001191002F13402126842F4806203F5805303F134031A604FF41043C4F204034FF400725A604FF41043C4F26F
S32D0001193804034FF400729A6043F29063C1F6FF731B684FF42040C4F2060019464FF41652FCF7ECFD4FF420430B
S32D00011960C4F206034FF42042C4F20602D278D2B222F00C02D2B2DA704FF42043C4F206034FF42042C4F20602B2
S32D00011988D278D2B242F02002D2B2DA704FF42043C4F206034FF42042C4F20602D27AD2B222F02002D2B2DA72A4
S32D000119B04FF46143CEF200034FF46142CEF20002D2F8842142F40052C3F884214FF46143CEF200034FF46142CF
S32D000119D8CEF20002526842F400525A604FF42043C4F206034FF42042C4F20602D278D2B242F00C02D2B2DA707E
S32D00011A004FF06400FDF702F87B684FF001021A704FF0010301E04FF00003184607F10807BD4680BD80B483B005
S32D00011A2800AF78607B681B78184607F10C07BD4680BC704780B487B000AFF860B9607A60FB704FF00003FB74B2
S32D00011A504FF000037B6139E000BF43F22273C1F6FF731B7883F00103DBB2002BF5D1BA687B69D21843F223733B
S32D00011A78C1F6FF731B78137043F22273C1F6FF734FF000021A70BA687B69D3181B780D2B22D0FB7C83F00103A6
S32D00011AA0DBB2002B0ED0BA687B69D3181B78FA789A4203D14FF00103FB7403E07B6903F1FF337B617B6903F188
S32D00011AC801037B617A697B689A422CBF00230123DBB2002BBCD100E000BF7B69184607F11C07BD4680BC704704
S32D00011AF080B586B000AFF860B9607A604FF000037B610EE0BA687B69D3181B784FF42040C4F206001946FCF721
S32D00011B182DFE7B6903F101037B617A697B689A422CBF00230123DBB2002BE7D17B69184607F11807BD4680BDDE
S32D00011B4080B483B000AF7860396043F20C73C1F6FF733A681A6007F10C07BD4680BC704780B582B000AF4FF49C
S32D00011B682040C4F20600FCF7E7FD0346FB7143F22373C1F6FF73FA791A7043F22273C1F6FF734FF001021A70F6
S32D00011B9043F22173C1F6FF731B78012B2BD0022B5CD0002B40F09280FB79FF2B40F08B8043F22173C1F6FF73E9
S32D00011BB84FF001021A7043F22073C1F6FF734FF000021A7043F22073C1F6FF731A78114643F21073C1F6FF73BB
S32D00011BE0F879585402F10103DAB243F22073C1F6FF731A7067E043F22073C1F6FF731A78114643F21073C1F62B
S32D00011C08FF73F879585402F10103DAB243F22073C1F6FF731A7043F22073C1F6FF731B78092B4ED143F20C7395
S32D00011C30C1F6FF731A6843F22073C1F6FF731B7843F21070C1F6FF701946904743F22173C1F6FF734FF0020210
S32D00011C581A7036E0FB79FF2B22D143F22173C1F6FF734FF001021A7043F22073C1F6FF734FF000021A7043F27D
S32D00011C802073C1F6FF731A78114643F21073C1F6FF73F879585402F10103DAB243F22073C1F6FF731A7011E0A3
S32D00011CA843F22073C1F6FF734FF000021A7043F22173C1F6FF734FF000021A7002E000BF00E000BF07F108074D
S32D00011CD0BD4680BD80B582B000AF78607B681846FFF7ECFD7B68184642F2D171C0F20101FFF726FF7B684FF0EF
S32D00011CF8FF325A6043F23073C1F6FF73144A1A6043F23473C1F6FF73114A1A6043F23873C1F6FF730E4A1A6044
S32D00011D2043F23C73C1F6FF734FF000021A7043F23D73C1F6FF734FF000021A7043F23E73C1F6FF734FF0000293
S32D00011D481A707B68184607F10807BD4680BD00BF0000000080B584B000AF786007F10C0318464FF00301FDF70F
S32D00011D706DFB4FF04103FB7343F2C860C1F6FF70FEF7D2F943F2C860C1F6FF7045F21401C0F20101FEF71EFB17
S32D00011D9843F2C860C1F6FF7045F23801C0F20101FEF714FB43F2C860C1F6FF7045F25001C0F20101FEF73CFA87
S32D00011DC0FB7B43F2C860C1F6FF701946FEF73EFB95E007F10C031846FDF7BEFB0346002B42D0FB7B03F1FF33C5
S32D00011DE8FB73FB7B402B02D84FF04C03FB7343F2C860C1F6FF70FEF793F943F2C860C1F6FF7045F21401C0F222
S32D00011E100101FEF7DFFA43F2C860C1F6FF7045F23801C0F20101FEF7D5FA43F2C860C1F6FF7045F25001C0F2AB
S32D00011E380101FEF7FDF9FB7B43F2C860C1F6FF701946FEF7FFFA00BF07F10C031846FDF77FFB0346002BF7D17A
S32D00011E604FF06400FCF7D2FD07F10C031846FDF799FB0346002B42D0FB7B03F10103FB73FB7B4C2B02D94FF098
S32D00011E884103FB7343F2C860C1F6FF70FEF748F943F2C860C1F6FF7045F21401C0F20101FEF794FA43F2C8605D
S32D00011EB0C1F6FF7045F23801C0F20101FEF78AFA43F2C860C1F6FF7045F25001C0F20101FEF7B2F9FB7B43F236
S32D00011ED8C860C1F6FF701946FEF7B4FA00BF07F10C031846FDF75AFB0346002BF7D14FF06400FCF787FD07F1D0
S32D00011F000C031846FDF73AFB034683F00103DBB2002B7FF45EAFFB7B7868194600F0B2FB00BF07F10C031846AE
S32D00011F28FDF728FB0346002BF7D14FF47A70FCF769FD07F11007BD4680BD00BF80B592B000AF786039607B6829
S32D00011F501846FFF767FD034683F00103DBB2002B03D07B681846FFF7B9FC43F22C73C1F6FF731B7883F001036C
S32D00011F78DBB2002B00F07E833B68002B03DA4FF000033B6005E03B680B2B02DD4FF00B033B607B683A685A6045
S32D00011FA043F2C860C1F6FF70FEF7BEF84FF00003BB624FF000037B6243F2C860C1F6FF7045F25C01C0F201019B
S32D00011FC8FEF736F94FF02B033B764FF02B037B764FF02B03BB767A6807F11803104619464FF00302FFF780FD4B
S32D00011FF00346BB627A6807F10C03104619464FF00A024FF04F03FFF719FD03467B627B6A012B02D93B7B4F2B94
S32D000120180AD043F2C860C1F6FF7045F27001C0F20101FEF7D3F925E34FF000037B640FE007F10C027B6CD3182F
S32D000120401B7843F2C860C1F6FF701946FEF7AAF97B6C03F101037B647A6C7B6A9A422CBF00230123DBB2002B15
S32D00012068E6D143F2C860C1F6FF7045F29801C0F20101FEF7ABF943F2C860C1F6FF7045F29C01C0F20101FEF7F2
S32D00012090D3F84FF041033B764FF054037B764FF04D03BB764FF05903FB767B685B68002B01DA03F103034FEAF0
S32D000120B8A303DBB203F13103DBB23B774FF031037B774FF03003BB777B685A684FF00303C8F200031340002B31
S32D000120E005DA03F1FF3363F0030303F10103DBB203F13003DBB2FB774FF00D0387F820307A6807F1180310465F
S32D0001210819464FF00902FFF7EFFC0346BB627A6807F10C03104619464FF00A024FF04F03FFF788FC03467B629E
S32D000121307B6A012B02D93B7B4F2B0AD043F2C860C1F6FF7045F2B001C0F20101FEF742F994E24FF000033B64E4
S32D000121580FE007F10C023B6CD3181B7843F2C860C1F6FF701946FEF719F93B6C03F101033B643A6C7B6A9A42B0
S32D000121802CBF00230123DBB2002BE6D143F2C860C1F6FF7045F29801C0F20101FEF71AF943F2C860C1F6FF70FD
S32D000121A845F2D001C0F20101FEF742F84FF041033B764FF054037B764FF04903BB764FF04403FB767B685B6809
S32D000121D0002B01DA03F103034FEAA303DBB203F13103DBB23B774FF030037B774FF03003BB774FF03003FB7721
S32D000121F84FF00D0387F820307A6807F11803104619464FF00902FFF76FFC0346BB627A6807F10C031046194641
S32D000122204FF00A024FF04F03FFF708FC03467B627B6A012B02D93B7B4F2B0AD043F2C860C1F6FF7045F2B00132
S32D00012248C0F20101FEF7C2F814E24FF00003FB630FE007F10C02FB6BD3181B7843F2C860C1F6FF701946FEF7BE
S32D0001227099F8FB6B03F10103FB63FA6B7B6A9A422CBF00230123DBB2002BE6D143F2C860C1F6FF7045F29801D8
S32D00012298C0F20101FEF79AF843F2C860C1F6FF7045F2E401C0F20101FDF7C2FF4FF041033B764FF054037B7619
S32D000122C04FF04403BB764FF04C03FB767B685B68002B01DA03F103034FEAA303DBB203F13103DBB23B774FF081
S32D000122E830037B774FF03003BB777B685A684FF00303C8F200031340002B05DA03F1FF3363F0030303F1010383
S32D00012310DBB203F13003DBB2FB774FF00D0387F820307A6807F11803104619464FF00902FFF7DEFB0346BB62A4
S32D000123387A6807F10C03104619464FF00A024FF04F03FFF777FB03467B627B6A012B02D93B7B4F2B0AD043F243
S32D00012360C860C1F6FF7045F2B001C0F20101FEF731F883E14FF00003BB630FE007F10C02BB6BD3181B7843F2B4
S32D00012388C860C1F6FF701946FEF708F8BB6B03F10103BB63BA6B7B6A9A422CBF00230123DBB2002BE6D143F28C
S32D000123B0C860C1F6FF7045F29801C0F20101FEF709F843F2C860C1F6FF7045F2FC01C0F20101FDF731FF4FF068
S32D000123D841033B764FF054037B764FF04403BB764FF04803FB764FF030033B774FF030037B774FF03003BB777C
S32D000124004FF03003FB774FF00D0387F820307A6807F11803104619464FF00902FFF768FB0346BB627A6807F11E
S32D000124280C03104619464FF00A024FF04F03FFF701FB03467B627B6A012B02D93B7B4F2B0AD043F2C860C1F6C3
S32D00012450FF7045F2B001C0F20101FDF7BBFF0DE14FF000037B630FE007F10C027B6BD3181B7843F2C860C1F629
S32D00012478FF701946FDF792FF7B6B03F101037B637A6B7B6A9A422CBF00230123DBB2002BE6D143F2C860C1F6CB
S32D000124A0FF7045F29801C0F20101FDF793FF43F2C860C1F6FF7045F21411C0F20101FDF7BBFE4FF041033B7620
S32D000124C84FF054037B764FF05703BB764FF05203FB764FF00D033B777A6807F11803104619464FF00502FFF7A8
S32D000124F0FFFA0346BB627A6807F10C03104619464FF00A024FF04F03FFF798FA03467B627B6A012B02D93B7B94
S32D000125184F2B0AD043F2C860C1F6FF7045F2B001C0F20101FDF752FFA4E04FF000033B630FE007F10C023B6BDD
S32D00012540D3181B7843F2C860C1F6FF701946FDF729FF3B6B03F101033B633A6B7B6A9A422CBF00230123DBB28F
S32D00012568002BE6D143F2C860C1F6FF7045F29801C0F20101FDF72AFF43F2C860C1F6FF7045F22811C0F2010197
S32D00012590FDF752FE4FF041033B764FF054037B764FF04303BB764FF04E03FB764FF00D033B777A6807F1180370
S32D000125B8104619464FF00502FFF796FA0346BB627A6807F10C03104619464FF00A024FF04F03FFF72FFA03462B
S32D000125E07B627B6A012B02D93B7B4F2B0AD043F2C860C1F6FF7045F2B001C0F20101FDF7E9FE3BE04FF00003A2
S32D00012608FB620FE007F10C02FB6AD3181B7843F2C860C1F6FF701946FDF7C0FEFB6A03F10103FB62FA6A7B6AD7
S32D000126309A422CBF00230123DBB2002BE6D143F2C860C1F6FF7045F29801C0F20101FDF7C1FE43F2C860C1F630
S32D00012658FF7045F24011C0F20101FDF7E9FD786800F054F8034643F2C860C1F6FF701946FDF7E8FE07F1480766
S32D00012680BD4680BD80B582B000AF78600B46FB70FB78402B0AD9FB784C2B07D8FB78A3F1410378681946FFF737
S32D000126A84DFC0CE0FB78602B09D9FB786C2B06D8FB78A3F1610378681946FFF73FFC07F10807BD4680BD00BF25
S32D000126D080B582B000AF786043F22C73C1F6FF734FF001021A7043F24070C1F6FF70FDF795F800BF786800F009
S32D000126F81DF80346002B14BF00230123DBB2002BF4D107F10807BD4680BD00BF80B483B000AF78607B685B68F9
S32D00012720DBB203F14103DBB2184607F10C07BD4680BC704780B584B000AF7860FCF780F90346FB6000BF43F2E5
S32D000127483F73C1F6FF731B7883F00103DBB2002B0BD0FCF771F90246FB68D21A40F2E7339A4202D84FF00103B1
S32D0001277001E04FF00003002BE5D143F23F73C1F6FF731B78002B0CD043F23F73C1F6FF734FF000021A7043F27C
S32D000127983D73C1F6FF731B7801E04FF00003184607F11007BD4680BD80B483B000AF786043F23873C1F6FF73DF
S32D000127C01B68184607F10C07BD4680BC704700BF80B582B000AF78600B46FB7043F22C73C1F6FF731B78002BE4
S32D000127E87ED0FB78092B7BD17B6803F101031B784FEA03227B6803F102031B78D3181846F9F7BCFE03461846AC
S32D000128103749F9F7BFFF034618463649F9F7FCFD03461A4643F23073C1F6FF731A607B6803F103031B784FEA8F
S32D0001283803227B6803F104031B78D3181846F9F79DFE034618462849F9F7A0FF034618462649F9F7DDFD034637
S32D000128601A4643F23473C1F6FF731A607B6803F105031B784FEA03227B6803F106031B78D3181846F9F77EFE72
S32D00012888034618461849F9F781FF03461A4643F23873C1F6FF731A607B68DA7943F23C73C1F6FF731A707B68CD
S32D000128B01A7A43F23D73C1F6FF731A7043F23D73C1F6FF731B78AA2B14BF00230123DAB243F23E73C1F6FF73A2
S32D000128D81A7043F23F73C1F6FF734FF001021A7007F10807BD4680BD000020410000C84480B582B000AF7860C9
S32D0001290039607B68012B12D13A684FF6FF739A420DD143F22470C1F6FF70FFF7DBF943F24070C1F6FF704FF007
S32D000129280701FCF759FF07F10807BD4680BD00BF80B500AF4FF001004FF6FF71FFF7D8FF80BD00BF0EB403B50B
S32D0001295003AB4FF0FF3153F8042B019300F018F8BDE80C4003B0704738B5836845680446D018A84220688CBF5E
S32D00012978C3EB050515462A46C01800F03BF8A3685D19A560012038BD70B586B0064600240D4603900491084880
S32D000129A0059403A9009400F003F93EB1A84201D2345403E015B1751905F8014C06B070BD692901000B4C08B504
S32D000129C8054601F07FF801F027F8236813B1984700232360064C236813B19847002323602846BDE80840FBF7D6
S32D000129F031BD00BF4C37FF1F5037FF1F10B5002302E0CC5CC45401339342FAD110BD10B5044600F081FF204635
S32D00012A1810BD2DE9F04F87B0002404929DF840209DF844500292DDF8488001F8014C81464A1EB8B9139CACB933
S32D00012A40029F0FB16F2D2FD0642D02D0692D40F0AB80022B02D18A1E202304E0012B40F0A3808A1E2B2301F8DA
S32D00012A68023C9DE0692D0FD004D8582D14D0642D1CD109E0752D04D0782D0DD06F2D15D110E000231E4614E07E
S32D00012A9000280FDAB0F1004F0ED0404281460BE000231E46102409E0139B00E000231E46082403E0002600E036
S32D00012AB801260A244FF0000C0596CDF80CC01E460191139F02E0CDF80CC05A46B9FBF4F304FB139ABAF1090F5E
S32D00012AE0994602D80AF1300A05E0782D0CBF0AF1570A0AF1370A03995FFA8AFA02F1FF3B02F801AC01F1010CA0
S32D00012B08002BE0D1082C33460199059E13970DD1029F5FB1BAF1300F08D04FF0300C02F802CCA2F1020B039A5D
S32D00012B3002F1020C049F022F0BD106B90BB108F1FF38102C03D1029A0AB1A8F10208CDF84C80139ACBEB01011A
