S01500002E2E2F62696E2F63757272656E742E733139E9
S32D0000C0000000002089F00000E5F30000E5F30000E5F30000E5F30000E5F3000000000000000000000000000041
S32D0000C02800000000E5F30000E5F3000000000000E5F30000E5F30000E5F30000E5F30000E5F30000E5F300002A
S32D0000C050E5F30000E5F30000E5F30000E5F30000E5F30000E5F30000E5F30000E5F30000E5F30000E5F3000052
S32D0000C078E5F30000E5F30000E5F30000E5F30000E5F30000E5F30000E5F30000E5F30000E5F30000E5F300002A
S32D0000C0A0E5F30000E5F30000E5F30000E5F30000E5F30000E5F30000E5F30000E5F30000E5F30000E5F3000002
S32D0000C0C8E5F30000E5F30000E5F30000E5F30000E5F30000E5F30000E5F30000E5F30000E5F30000E5F30000DA
S32D0000C0F0E5F30000492E0100E5F30000E5F30000E5F30000E5F30000E5F30000E5F30000E5F30000E5F3000012
S32D0000C118E5F30000E5F30000E5F30000E5F30000E5F30000E5F30000E5F30000E5F30000E5F30000E5F3000089
S32D0000C140E5F30000E5F30000E5F30000E5F30000BD020100E5F30000E5F30000E5F30000E5F30000E5F3000079
S32D0000C168E5F30000E5F30000E5F30000E5F30000E5F30000E5F30000E5F30000E5F30000E5F30000E5F3000039
S32D0000C190E5F30000E5F30000E5F30000E5F30000E5F30000E5F3000035F40000E5F30000E5F30000E5F30000C0
S32D0000C1B8E5F30000E5F30000E5F30000E5F30000E5F30000E5F30000E5F30000E5F30000E5F30000E5F30000E9
S32D0000C41081F0004102E000BF83F0004330B54FEA41044FEA430594EA050F08BF90EA020F1FBF54EA000C55EAC6
S32D0000C438020C7FEA645C7FEA655C00F0E2804FEA5454D4EB5555B8BF6D420CDD2C4480EA020281EA030382EA0F
S32D0000C460000083EA010180EA020281EA0303362D88BF30BD11F0004F4FEA01314FF4801C4CEA113102D0404263
S32D0000C48861EB410113F0004F4FEA03334CEA133302D0524263EB430394EA050F00F0A780A4F10104D5F1200E8A
S32D0000C4B00DDB02FA0EFC22FA05F2801841F1000103FA0EF2801843FA05F359410EE0A5F120050EF1200E012A2D
S32D0000C4D803FA0EFC28BF4CF0020C43FA05F3C01851EBE37101F0004507D54FF0000EDCF1000C7EEB00006EEB67
S32D0000C5000101B1F5801F1BD3B1F5001F0CD349085FEA30004FEA3C0C04F101044FEA445212F5800F80F09A8000
S32D0000C528BCF1004F08BF5FEA500C50F1000041EB045141EA050130BD5FEA4C0C404141EB010111F4801FA4F114
S32D0000C5500104E9D191F0000F04BF01460020B1FA81F308BF2033A3F10B03B3F120020CDA0C3208DD02F1140C87
S32D0000C578C2F10C0201FA0CF021FA02F10CE002F11402D8BFC2F1200C01FA02F120FA0CFCDCBF41EA0C019040B1
S32D0000C5A0E41AA2BF01EB0451294330BD6FEA04041F3C1CDA0C340EDC04F11404C4F1200220FA04F001FA02F3B6
S32D0000C5C840EA030021FA04F345EA030130BDC4F10C04C4F1200220FA02F001FA04F340EA0300294630BD21FAA8
S32D0000C5F004F0294630BD94F0000F83F4801306BF81F480110134013D4EE77FEA645C18BF7FEA655C29D094EA1C
S32D0000C618050F08BF90EA020F05D054EA000C04BF1946104630BD91EA030F1EBF0021002030BD5FEA545C05D1A3
S32D0000C6404000494128BF41F0004130BD14F580043CBF01F5801130BD01F0004545F0FE4141F470014FF0000031
S32D0000C66830BD7FEA645C1ABF194610467FEA655C1CBF0B46024650EA013406BF52EA033591EA030F41F40021D7
S32D0000C69030BD00BF90F0000F04BF0021704730B54FF4806404F132044FF000054FF0000150E700BF90F0000F66
S32D0000C6B804BF0021704730B54FF4806404F1320410F0004548BF40424FF000013EE700BF42004FEAE2014FEAF9
S32D0000C6E031014FEA02701FBF12F07F4393F07F4F81F06051704792F0000F14BF93F07F4F704730B54FF460741B
S32D0000C70801F0004521F0004120E700BF50EA010208BF704730B54FF000050AE050EA010208BF704730B511F046
S32D0000C730004502D5404261EB41014FF4806404F132045FEA915C3FF4DCAE4FF003025FEADC0C18BF03325FEAA0
S32D0000C758DC0C18BF033202EBDC02C2F1200300FA03FC20FA02F001FA03FE40EA0E0021FA02F11444C1E600BF19
S32D0000C78070B54FF0FF0C4CF4E06C1CEA11541DBF1CEA135594EA0C0F95EA0C0F00F0DEF82C4481EA030621EAF3
S32D0000C7A84C5123EA4C5350EA013518BF52EA033541F4801143F4801338D0A0FB02CE4FF00005E1FB02E506F05F
S32D0000C7D00042E0FB03E54FF00006E1FB03569CF0000F18BF4EF0010EA4F1FF04B6F5007F64F5407404D25FEA0F
S32D0000C7F84E0E6D4146EB060642EAC62141EA55514FEAC52040EA5E504FEACE2EB4F1FD0C88BFBCF5E06F1ED8D2
S32D0000C820BEF1004F08BF5FEA500E50F1000041EB045170BD06F0004646EA010140EA020081EA0301B4EB5C0487
S32D0000C848C2BFD4EB0C0541EA045170BD41F480114FF0000E013C00F3AB8014F1360FDEBF002001F0004170BDF0
S32D0000C870C4F10004203C35DA0C341BDC04F11404C4F1200500FA05F320FA04F001FA05F240EA020001F0004207
S32D0000C89821F0004110EBD37021FA04F642EB06015EEA430E08BF20EAD37070BDC4F10C04C4F1200500FA04F32F
S32D0000C8C020FA05F001FA04F240EA020001F0004110EBD37041F100015EEA430E08BF20EAD37070BDC4F12005C7
S32D0000C8E800FA05F24EEA020E20FA04F301FA05F243EA020321FA04F001F0004121FA04F220EA020000EBD37028
S32D0000C9105EEA430E08BF20EAD37070BD94F0000F0FD101F00046400041EB010111F4801F08BF013CF7D041EA6D
S32D0000C938060195F0000F18BF704703F00046520043EB030313F4801F08BF013DF7D043EA0603704794EA0C0FF1
S32D0000C9600CEA135518BF95EA0C0F0CD050EA410618BF52EA4306D1D181EA030101F000414FF0000070BD50EA38
S32D0000C988410606BF1046194652EA430619D094EA0C0F02D150EA013613D195EA0C0F05D152EA03361CBF10467B
S32D0000C9B019460AD181EA030101F0004141F0FE4141F470014FF0000070BD41F0FE4141F4780170BD70B54FF04D
S32D0000C9D8FF0C4CF4E06C1CEA11541DBF1CEA135594EA0C0F95EA0C0F00F0A7F8A4EB050481EA030E52EA03359B
S32D0000CA004FEA013100F088804FEA03334FF0805545EA131343EA12634FEA022245EA111545EA10654FEA002676
S32D0000CA280EF000419D4208BF964244F1FD0404F5407402D25B084FEA3202B61A65EB03055B084FEA32024FF461
S32D0000CA5080104FF4002CB6EB020E75EB030E22BFB61A754640EA0C005B084FEA3202B6EB020E75EB030E22BF22
S32D0000CA78B61A754640EA5C005B084FEA3202B6EB020E75EB030E22BFB61A754640EA9C005B084FEA3202B6EBEA
S32D0000CAA0020E75EB030E22BFB61A754640EADC0055EA060E18D04FEA051545EA16754FEA06164FEAC30343EAAC
S32D0000CAC852734FEAC2025FEA1C1CC0D111F4801F0BD141EA00014FF000004FF0004CB6E711F4801F04BF0143AE
S32D0000CAF00020B4F1FD0C88BFBCF5E06F3FF6AFAEB5EB030C04BFB6EB020C5FEA500C50F1000041EB045170BDBC
S32D0000CB180EF0004E4EEA113114EB5C04C2BFD4EB0C0541EA045170BD41F480114FF0000E013C90E645EA060EC3
S32D0000CB408DE60CEA135594EA0C0F08BF95EA0C0F3FF43BAF94EA0C0F0AD150EA01347FF434AF95EA0C0F7FF499
S32D0000CB6825AF104619462CE795EA0C0F06D152EA03353FF4FDAE1046194622E750EA410618BF52EA43067FF432
S32D0000CB90C5AE50EA41047FF40DAF52EA43057FF4EBAE12E74FF0FF3C06E000BF4FF0010C02E000BF4FF0010C75
S32D0000CBB84DF804CD4FEA410C7FEA6C5C4FEA430C18BF7FEA6C5C1BD001B050EA410C0CBF52EA430C91EA030FEC
S32D0000CBE002BF90EA020F0020704710F1000F91EA030F58BF994208BF90422CBFD8176FEAE37040F0010070476E
S32D0000CC084FEA410C7FEA6C5C02D150EA013C07D14FEA430C7FEA6C5CD6D152EA033CD3D05DF8040B704700BFCD
S32D0000CC308446104662468C461946634600E000BF01B5FFF7B7FF002848BF10F1000F01BD4DF808EDFFF7F4FF13
S32D0000CC580CBF012000205DF808FB00BF4DF808EDFFF7EAFF34BF012000205DF808FB00BF4DF808EDFFF7E0FF18
S32D0000CC8094BF012000205DF808FB00BF4DF808EDFFF7CEFF94BF012000205DF808FB00BF4DF808EDFFF7C4FF40
S32D0000CCA834BF012000205DF808FB00BF4FEA410212F5001215D211D56FF47873B3EB625212D94FEAC12343F0D6
S32D0000CCD0004343EA505311F0004F23FA02F018BF404270474FF00000704750EA013005D111F0004008BF6FF016
S32D0000CCF8004070474FF00000704700BF4FEA4102B2F1E04324BFB3F5001CDCF1FE5C0DD901F0004C4FEAC00234
S32D0000CD204CEA5070B2F1004F40EB830008BF20F00100704711F0804F21D113F13872BCBF01F00040704741F4B8
S32D0000CD4880114FEA5252C2F11802C2F1200C10FA0CF320FA02F018BF40F001004FEAC1234FEAD32303FA0CFC35
S32D0000CD7040EA0C0023FA02F34FEA4303CCE77FEA625307D150EA01331EBF4FF0FE4040F44000704701F0004001
S32D0000CD9840F0FE4040F40000704700BF80F0004002E000BF81F0004142001FBF5FEA410392EA030F7FEA226C20
S32D0000CDC07FEA236C6AD04FEA1262D2EB1363C1BFD218414048404140B8BF5B42192B88BF704710F0004F40F466
S32D0000CDE8000020F07F4018BF404211F0004F41F4000121F07F4118BF494292EA030F3FD0A2F1010241FA03FCCF
S32D0000CE1010EB0C00C3F1200301FA03F100F0004302D5494260EB4000B0F5000F13D3B0F1807F06D340084FEA73
S32D0000CE38310102F10102FE2A51D2B1F1004F40EBC25008BF20F0010040EA03007047490040EB000010F4000FE8
S32D0000CE60A2F10102EDD1B0FA80FCACF1080CB2EB0C0200FA0CF0AABF00EBC25052421843BCBFD04018437047E6
S32D0000CE8892F0000F81F4000106BF80F400000132013BB5E74FEA41037FEA226C18BF7FEA236C21D092EA030F6F
S32D0000CEB004D092F0000F08BF0846704790EA010F1CBF0020704712F07F4F04D1400028BF40F00040704712F1F1
S32D0000CED800723CBF00F50000704700F0004343F0FE4040F4000070477FEA226216BF08467FEA236301464202FA
S32D0000CF0006BF5FEA412390EA010F40F4800070474FF0000304E000BF10F0004348BF40425FEA000C08BF704718
S32D0000CF2843F0964301464FF000001CE050EA010208BF70474FF000030AE000BF50EA010208BF704711F00043A8
S32D0000CF5002D5404261EB41015FEA010C02BF84460146002043F0B64308BFA3F18053A3F50003BCFA8CF2083A19
S32D0000CF78A3EBC25310DB01FA02FC634400FA02FCC2F12002BCF1004F20FA02F243EB020008BF20F001007047C7
S32D0000CFA002F1200201FA02FCC2F1200250EA4C0021FA02F243EB020008BF20EADC7070474FF0FF0C1CEAD05275
S32D0000CFC81EBF1CEAD15392EA0C0F93EA0C0F6FD01A4480EA010C400218BF5FEA41211ED04FF0006343EA501010
S32D0000CFF043EA5111A0FB01310CF00040B1F5000F3EBF490041EAD3715B0040EA010062F17F02FD2A1DD8B3F1F7
S32D0000D018004F40EBC25008BF20F00100704790F0000F0CF0004C08BF49024CEA502040EA51207F3AC2BFD2F1A8
S32D0000D040FF0340EAC250704740F400004FF00003013A5DDC12F1190FDCBF00F000407047C2F10002410021FA25
S32D0000D06802F1C2F1200200FA02FC5FEA310040F1000053EA4C0308BF20EADC70704792F0000F00F0004C02BF41
S32D0000D090400010F4000F013AF9D040EA0C0093F0000F01F0004C02BF490011F4000F013BF9D041EA0C018FE745
S32D0000D0B80CEAD15392EA0C0F18BF93EA0C0F0AD030F0004C18BF31F0004CD8D180EA010000F00040704790F025
S32D0000D0E0000F17BF90F0004F084691F0000F91F0004F14D092EA0C0F01D142020FD193EA0C0F03D14B0218BFBF
S32D0000D108084608D180EA010000F0004040F0FE4040F40000704740F0FE4040F4400070474FF0FF0C1CEAD052D3
S32D0000D1301EBF1CEAD15392EA0C0F93EA0C0F69D0A2EB030280EA010C49024FEA402037D04FF0805343EA11110D
S32D0000D15843EA10130CF000408B4238BF5B0042F17D024FF4000C8B4224BF5B1A40EA0C00B3EB510F24BFA3EB33
S32D0000D180510340EA5C00B3EB910F24BFA3EB910340EA9C00B3EBD10F24BFA3EBD10340EADC001B0118BF5FEA99
S32D0000D1A81C1CE0D1FD2A3FF650AF8B4240EBC25008BF20F0010070470CF0004C4CEA50207F32C2BFD2F1FF0397
S32D0000D1D040EAC250704740F400004FF00003013A37E792F0000F00F0004C02BF400010F4000F013AF9D040EA60
S32D0000D1F80C0093F0000F01F0004C02BF490011F4000F013BF9D041EA0C0195E70CEAD15392EA0C0F08D1420289
S32D0000D2207FF47DAF93EA0C0F7FF470AF084676E793EA0C0F04D14B023FF44CAF08466EE730F0004C18BF31F07D
S32D0000D248004CCAD130F000427FF45CAF31F000437FF43CAF5FE700BF4FF0FF3C06E000BF4FF0010C02E000BF1E
S32D0000D2704FF0010C4DF804CD4FEA40024FEA41037FEA226C18BF7FEA236C11D001B052EA530C18BF90EA010FE2
S32D0000D29858BFB2EB030088BFC81738BF6FEAE17018BF40F0010070477FEA226C02D15FEA402C05D17FEA236CDE
S32D0000D2C0E4D15FEA412CE1D05DF8040B704700BF844608466146FFE70FB5FFF7C9FF002848BF10F1000F0FBD18
S32D0000D2E84DF808EDFFF7F4FF0CBF012000205DF808FB00BF4DF808EDFFF7EAFF34BF012000205DF808FB00BF6E
S32D0000D3104DF808EDFFF7E0FF94BF012000205DF808FB00BF4DF808EDFFF7D2FF94BF012000205DF808FB00BF89
S32D0000D3384DF808EDFFF7C8FF34BF012000205DF808FB00BF4FEA4002B2F1FE4F0FD34FF09E03B3EB12620DD960
S32D0000D3604FEA002343F0004310F0004F23FA02F018BF404270474FF00000704712F1610F01D1420205D110F00A
S32D0000D388004008BF6FF0004070474FF000007047036803B11B181846704700BF03685A004CBF43F0004323F0A5
S32D0000D3B00043C018704700BF2DE9F84F0446914641B301F1FF3BDA46002707EB0A0101EBD1756D1004EBC50673
S32D0000D3D83046FFF7E3FF8046681CAB4504EBC0000DD0FFF7DBFF0138C84504D9BD4209D005F1FF3AE5E74845C0
S32D0000D40005D26F1CE1E74FF0FF30F1E700263046BDE8F88F0E463046BDE8F88F30B52B4B83B004468D1E002B22
S32D0000D42849D0284601A9AFF300800346002822D02A4618460199FFF7BBFF054600281DD0FFF7ACFF6B68A06430
S32D0000D450012B10D0281D002B22DBFFF7A3FF0021E06421650368002B0FDBFFF79BFF2061002003B030BD00233E
S32D0000D47823610520F9E720610920F6E720610920F3E7C3F3036058B101280CD002280ED0002020610920E8E72A
S32D0000D4A00122E0642265DDE7094B2361E1E7094A00202261DDE7084900202161D9E7074B0749C81AC2100192B6
S32D0000D4C8B6E700BF00000000E9D90000E5D90000E1D90000B46A0100A46C0100036810B50446D80706D499079D
S32D0000D4F004F1480009D500F00DFD23685A0709D518070ED5D90613D510BD00F0FBFC23685A07F5D404F1D00038
S32D0000D51800F004FD23681807F0D404F5D87000F005FD2368D906EBD404F50C70BDE8104000F040BD2DE9F04786
S32D0000D5400F1D054691460FCFADF5916D02AC261D0FC60FCF0FC60FCF0FC697E80F00D5F80C80D5F818A0002732
S32D0000D56886E80F00216C27602846FFF753FF0646B94514BF4FF00A094FF00909FEB1A16B49F01009616401209B
S32D0000D5908DE8100449462A462B46C04700282BD1002E2AD1204692A94FF4107206F0B0FB082F28D1216C2846EE
S32D0000D5B8FFF730FF06464FF00909002EDFD1206C21464FF41072686192A806F09DFB2F69294692AA4846B8478C
S32D0000D5E0A09B0746636401208DE8100449462A462B46C0470028D3D00926304622B00DF5806DBDE8F087072F2A
S32D0000D608F6D1201D00F06EFC38B504460D46296C2046FFF7FFFE50B92A6C23696261012021462A469847082829
S32D0000D630F1D0072801D008F0BBFC281D00F056FC11B933B10220704704298CBF0220012070470F2A01D90220A7
S32D0000D658704700EB820118464A68009B1A60704710B50A4684B000210B4603AC0094FFF7E3FF039804B010BDB1
S32D0000D68011B933B10220704704298CBF0220012070470F2A01D902207047009900EB8202096818465160704758
S32D0000D6A810B584B004AB0C4643F8042D0021009322460B46FFF7E0FF04B010BD2DE9F04FCD6C8BB00C4655F8C3
S32D0000D6D0041B174600F008021E46039200F003080795002B40F0CF8009020691216D8DF821300323B8F1020F96
S32D0000D6F88DF8203008BFA56B11F0010340F0D380019304F158030293D5F80090B9F1000F00F0CB80022E00F0E6
S32D0000D720AE80B5F80090B5F802A00435A26C0F212AF0010B38469344FFF796FF834518D829F0010CE3440AF0A5
S32D0000D748010A09F00103584543EA4A092CBF00200120B9F1010F12D032D2B8F1000F02D0002840F01D81043509
S32D0000D770CEE70AF0010A09F0010343EA4A090020B9F1010FECD1B8F1000F40F0B680C8B16B68D5F800909A1C40
S32D0000D79819D0029A013309920DD0281DFFF7F8FD4FEAD972014609AB204607F067FC002800F0F280099A002A6C
S32D0000D7C040F0BA800835A3E7B9F1020F03D009200BB0BDE8F08F2B6823F000420092B8F1000F71D1002843D0C5
S32D0000D7E80398002840F0A1800098002800F0A080009BDDF80C90DB0705F1040A40F1B480CDF810800596A846FA
S32D0000D810029E12E000998D4200F0D9800996FFF7BBFD5A46014609AB204607F02BFCA946B0B90AF1040A05F1E4
S32D0000D838010950460996FFF7ABFD09AB01460022204607F01BFC0AF1040A834609F101055046BBF1000FD9D088
S32D0000D8604546059EDDF81080009A4A4564D02B68002B7BDB0099481C05EB800548E7D5F804A0083552E70B04FF
S32D0000D888C1F30740216D06930222B8F1020F05EB800508BFA56B8DF8210011F001038DF820203FF42DAF002087
S32D0000D8B00190384606A900F019FC002887D1019A002A43D1082083E70D213846D4F82090FFF7CAFE8145CAD155
S32D0000D8D8A26A9542C7D10098291D00220423A062E26223636163286800286EDB01220192BCE70D213846D4F81E
S32D0000D9002090FFF7B1FE81457FF45CAFA16A8D427FF458AF2846FFF745FD0F2102463846FFF7C2FE384600211B
S32D0000D9282246FFF7BDFE07204EE7009900299BD138460D21FFF794FE099B20626362A562062041E70F2138460C
S32D0000D950FFF78AFE0E2102463846FFF7A5FE38460F211E4AFFF7A0FE072031E7043581E7029950460991FFF752
S32D0000D9780FFD039A014609AB204607F07FFB00287FF46EAFCDF8108005960AF1040A4FF00109A846029E4CE74B
S32D0000D9A0CDF824800835B3E62846FFF7FBFC04350646A563204607F0DBFB00283FF407AF38460F213246FFF7D2
S32D0000D9C86FFE072000E74546B2E7009B591C05EB81009CE7D952010002236FE601236DE600236BE62DE9F047B0
S32D0000D9F00446E8B004290CD8DFE801F0380391930F00150C012B96B200F07881052B00F0C780022068B0BDE82C
S32D0000DA18F087002BF9D1102AF7D82368D90600F1738164A8019200F0CFFA019AA36BD00744BF53F8040B6490F3
S32D0000DA40910744BF53F8041B6591500744BF53F8041B6691110748BF53F8042B64A8A36348BF679200F0AAFAC3
S32D0000DA680020D3E7002BD0D1A36BD00791B244BF53F8042B62608A0744BF53F8042BA260480744BF53F8042BA7
S32D0000DA90E2600A0744BF53F8042B2261C80644BF53F8042B62618A0644BF53F8042BA261480644BF53F8042B2C
S32D0000DAB8E2610A0644BF53F8042B2262C80544BF53F8042B62628A0544BF53F8042BA262480544BF53F8042B04
S32D0000DAE0E2620A0544BF53F8042B2263C80444BF53F8042B626311F400501CBF53F8042BA2634A0444BF53F86A
S32D0000DB08042BE2630A0444BF53F8042B2264002840D1A3637AE7012078E7032B7FF475AF160C95B2AA19102A1F
S32D0000DB303FF66FAF2368180700F10B8144A800F01BFAA76B4FEA450E3B460DB344A90EF1FF3C01EBC60653F853
S32D0000DB58040B62460CF0010146F8040B92B129B153F8041B013A46F8041B0BD01846314650F8045B41F8045B8F
S32D0000DB805D68031D75600E1D023AF3D107EB8E0344A8A36300F0CEF900203BE7002039E777192022BA42FFF423
S32D0000DBA834AF012B00F0A9800F2D40F2A9803746F6B1052B7FF429AF0F2D11D82268D0070ED522F00101052B44
S32D0000DBD02160204600F0DA8022F0030240F8482B019300F093F9019B1FB12268510700F1B880012B00F0BF8052
S32D0000DBF80F2D75D9002F40F0A080D4F83890002EC8462EDD49460DF1080A4FEA46080AEBC50251F8046B08F188
S32D0000DC20FF3000F0010A42F8046BA8F1020CD0B1BAF1000F08D051F8040B0CF1FF3CBCF1FF3F42F8040B0ED0A7
S32D0000DC480E46104656F804AB40F804AB4968ACF1020C5160311D021DBCF1FF3FF0D109EB8808A7B3102D2CBFF4
S32D0000DC702E4610260DF5D079414609EBC60CACF5C8724FEA470951F8046B09F1FF3000F0010A42F8046BA9F1C1
S32D0000DC98020CD0B1BAF1000F08D051F8040B0CF1FF3CBCF1FF3F42F8040B0ED00E46104656F804AB40F804AB0D
S32D0000DCC04968ACF1020C5160311D021DBCF1FF3FF0D108EB8908012B2BD00F2DC4F8388008D9FFB9384695E623
S32D0000DCE802A8019300F016F9019B83E702A800F00DF9F2E77719102250E70F2D3FF685AE102F10D9103F54E703
S32D0000DD1023F01003236004F50C70019200F058F9019A82E624A800F0FDF8002072E6002746E708F1040302A8C9
S32D0000DD38A36300F0E3F8002068E624A80193C5F1100600F0EFF8019B57E723F0080704F5D870276000F00CF9C2
S32D0000DD60ECE6204622F0040140F8D01B019300F0DDF8019B3DE702A8019300F0C7F8019B002F3FF43EAFC5F17C
S32D0000DD8810063AE741F0020140F8481B019300F0C1F8019B24E700BF406C7047F0B50D460F1DC96B2964044632
S32D0000DDB00FCFADF5117D01AE0FC60FCF0FC60FCF0FC697E80F0086E80F004FF0FF33009310992046FFF722FB1C
S32D0000DDD858B9266921466A46B04708280646F3D06846FFF77BFB062E03D009200DF5117DF0BD20462946FFF7DE
S32D0000DE0007FC00BF10B4DC6BC1608261194600221C6410BCFFF792BB38B54269C3680A6404460D4623B101224E
S32D0000DE28FFF788FB08F0C0F80369214602202A469847072803D0082804D008F0B5F8281D00F050F82046294662
S32D0000DE50FFF7DEFBC36823B1CA6B0A640022FFF76DBB9FE7704700BF08B5836801460BB10120984708BD00BFC8
S32D0000DE78F0B5D46B171D146405460C460FCFADF5277D01AE0FC60FCF0FC60FCF0FC697E80F0086E80F004FF0F7
S32D0000DEA0FF330093109990A8FFF7B8FA034690AA68460C21BBB9FFF7F7FB21466846A847064690A908206A46EB
S32D0000DEC86EB9949B98470528064601D00928E5D16846FFF703FB30460DF5277DF0BD0926F6E700BF00F134016A
S32D0000DEF091E838009C46A6464CF8045D90E8FF0FE54600BD90EC210B704700BF80EC210B704700BF90EC200B9F
S32D0000DF18704700BF80EC200B704700BFD0EC200B704700BFC0EC200B704700BFF0EC0201F0EC0211F0EC0221E1
S32D0000DF40F0EC0231F0EC0241F0EC0251F0EC0261F0EC0271F0EC0281F0EC0291F0EC02A1F0EC02B1F0EC02C14D
S32D0000DF68F0EC02D1F0EC02E1F0EC02F1704700BFE0EC0201E0EC0211E0EC0221E0EC0231E0EC0241E0EC02510E
S32D0000DF90E0EC0261E0EC0271E0EC0281E0EC0291E0EC02A1E0EC02B1E0EC02C1E0EC02D1E0EC02E1E0EC02F1BD
S32D0000DFB8704700BFB0FC0181B0FC0191B0FC01A1B0FC01B1704700BFA0FC0181A0FC0191A0FC01A1A0FC01B15F
S32D0000DFE0704700BFEC4600B52DE900502DE9FF1F4FF000032DE90C0001A9FFF7D3FEDDF840E012B0704700BF1A
S32D0000E008EC4600B52DE900502DE9FF1F4FF000032DE90C0001A9FFF7FBFEDDF840E012B0704700BFEC4600B558
S32D0000E0302DE900502DE9FF1F4FF000032DE90C0001A9FFF707FFDDF840E012B0704700BFEC4600B52DE90050A4
S32D0000E0582DE9FF1F4FF000032DE90C0001ABFFF7CDFEDDF840E012B0704700BFEC4600B52DE900502DE9FF1FE7
S32D0000E0804FF000032DE90C0001AAFFF7F5FEDDF840E012B0704700BF027A03461AB9427A42B9B020704700680F
S32D0000E0A8013A01021A72000E196070474168501E587251F8040B0322596001021A72000E1960704710B5002178
S32D0000E0D084B00C220DEB02040B460094FFF7B0FA039804B010BD00BFF0E700BF2DE9F043064685B00D464FF070
S32D0000E0F800094FF47F672846FFF7CAFFB028044600F0B08010F0800120D000F0F003802B74D0902B37D0A02B89
S32D0000E12045D0B02B56D0C02B00F0858000F0F800D0280BD104F00702511C41F40022304601210523FFF752FC5A
S32D0000E1480028D8D0092005B0BDE8F0834FEA800203A85FFA82F800900D220B463046FFF76BFA039B600608F1CC
S32D0000E17004084CBFC8EB0303434403AC03930094002130460D220B46FFF77AFAB7E700F00F020D2ADAD00F2A17
S32D0000E198D8D0002103AC009430460B4603ACFFF74BFA0094E8E7C24302F0070C47FA0CF0210700F47F6248BFEE
S32D0000E1C042F48042002130460B46FFF70FFC0028BCD194E7B1285DD0B2286ED0B32800F0958000F0FC02B42A56
S32D0000E1E846D000F00702531C43F40022012130460B46FFF7F7FB0028A4D17CE72846FFF747FF210240EA010465
S32D0000E210B4F5004F9AD0230500211A0C30460B462401FFF7E3FB002890D114F4004F18BF4FF0010963E7C62817
S32D0000E23873D0C72800F0848000F0F802C02A00F09280C82800F0A680C9287FF47BAF2846FFF71EFF00F00F03A5
S32D0000E26000F0F0015A1C42EA013268E7B9F1000F00F0838000206AE700F00301481C022140F480220B46304656
S32D0000E288FFF7B0FB00287FF45DAF34E72846FFF7FFFE024600283FF455AF10F0F0017FF451AF30460B46FFF7DC
S32D0000E2B09DFB00287FF44AAF21E700210D220B4603AC30460094FFF7BBF92846FFF7E4FE022402060DD5039B14
S32D0000E2D800F07F0000FA04FE03EB0E0128460391FFF7D6FE07340306F1D4039B00F07F0103AA03F5017C01FAB0
S32D0000E30004F400920CEB0402039239E72846FFF7C3FE00F00F03591C00F0F00041EA003268E72846FFF7B8FE71
S32D0000E32800F00F03591C00F0F00041EA0032032130460B46FFF756FB00287FF403AFDAE62846FFF7A5FE024685
S32D0000E35000283FF4FBAE10F0F0037FF4F7AE30460421FFF743FB00287FF4F0AEC7E600F00F01481C40F4202201
S32D0000E378DDE703AC49460E224B4630460094FFF75BF9304649460F224B460094FFF774F94846D8E62846FFF7F2
S32D0000E3A07BFE00F0F00200F00F001032431C43EA0232C4E610B5C26C84B0032054688DF80C00D3792402083206
S32D0000E3C8084601A9019402928DF80D30FFF78AFE04B010BD08B5FFF783FE806C08BD00BF08B5FFF77DFEC16C46
S32D0000E3F0C87901EB800303F1080008BD08B507F0D7FD00BF08B507F0D3FD00BF90B591B000AF21E043F2CC606D
S32D0000E418C1F6FF7003F00AF843F2CC60C1F6FF7046F27011C0F2010103F088F843F28860C1F6FF7004F060FBC2
S32D0000E440034643F2CC60C1F6FF70194603F042F94FF0FA0001F008FB43F27C60C1F6FF7002F0E0F9034683F066
S32D0000E4680103DBB2002BD1D14FF0FA0001F0F8FA00F0CAFD0346FB6343F28060C1F6FF7004F0DCFD43F2806091
S32D0000E490C1F6FF7005F090FA43F2CC60C1F6FF7002F0C8FF4FF0FA0001F0DEFA43F22863C1F6FF737B6043F27E
S32D0000E4B82C63C1F6FF73BB6043F23063C1F6FF73FB6043F23463C1F6FF733B6143F25063C1F6FF737B6143F264
S32D0000E4E06C63C1F6FF73BB6143F27063C1F6FF73FB6143F27463C1F6FF733B6243F27863C1F6FF737B6243F250
S32D0000E5088063C1F6FF73BB6243F27C63C1F6FF73FB6243F28863C1F6FF733B63FB6BBB6343F28060C1F6FF707C
S32D0000E53005F0C8FA03467B6300E000BF43F2CC60C1F6FF7046F28411C0F2010103F0AEF800BF43F26C60C1F628
S32D0000E558FF7001F0CDFC03464FF00102144618463849FEF7E5FE0346002B02D14FF000031C46E3B2002BE8D16C
S32D0000E58043F2CC60C1F6FF7046F29811C0F2010103F08CF843F2CC60C1F6FF7046F2A411C0F2010103F082F845
S32D0000E5A807F104031846284900F0ECF807F104031846264900F018FB07F104031846244900F0F6F900BF43F237
S32D0000E5D07C60C1F6FF7002F025F9034683F00103DBB2002BF3D100E000BF43F27C60C1F6FF7002F017F90346AE
S32D0000E5F8002B9ED143F27C60C1F6FF7002F0FCF80346002BECD000BF43F28060C1F6FF7005F0F0F943F2CC60D5
S32D0000E620C1F6FF7002F006FF43F2CC60C1F6FF7046F2B811C0F2010103F038F84FF00003184607F14407BD466A
S32D0000E64890BD00BF0000003F0000D8410000A2420000A04180B582B000AF786039607B68012B40F081803A6812
S32D0000E6704FF6FF739A427BD143F22860C1F6FF704FF0020100F004FF43F22C60C1F6FF704FF0000100F0FCFE74
S32D0000E69843F23060C1F6FF704FF0030100F0F4FE43F23460C1F6FF704FF0000101F05EFE40F20953C0F2010384
S32D0000E6C043F23460C1F6FF70194643F25872C1F6FF7206F0AFFB43F25060C1F6FF704FF0010101F047FE40F263
S32D0000E6E80953C0F2010343F25060C1F6FF70194643F25872C1F6FF7206F098FB43F26C60C1F6FF704FF0080169
S32D0000E71001F0E0FB43F27060C1F6FF704FF0100101F0D8FB43F27460C1F6FF704FF0110101F0D0FB43F2786087
S32D0000E738C1F6FF704FF0120101F0C8FB43F27C60C1F6FF704FF0030101F0D0FF43F28060C1F6FF7004F02EFCF4
S32D0000E76043F28860C1F6FF704FF0200104F0E4F907F10807BD4680BD80B500AF4FF001004FF6FF71FFF76AFF98
S32D0000E78880BD00BFB0B58AB000AF78603960386800F08AFB0346BB61386800F0A5FB03467B616FF059037B6241
S32D0000E7B06FF059033B6201F071F902460B4610461946FEF79FFA0346FB6100BF7B685B6A184605F077F9034694
S32D0000E7D83B614FF001031C4638697249FEF780FD0346002B02D14FF000031C46E3B2002BE8D17B68DB6818461C
S32D0000E80001F06AFF7B681B69184601F065FFA1E07B681B681846796A00F04EFE7B685B681846396A00F048FE35
S32D0000E82801F038F904460D46F869FDF751FF02460B4620462946FDF7EBFD02460B464FF001010C461046194633
S32D0000E8504FF000024FF07E5303F5C003FEF716FA0346002B02D14FF000031C46E3B2002B70D000BF7B685B6A37
S32D0000E878184605F023F90346FB604FF001031C46F8684849FEF72CFD0346002B02D14FF000031C46E3B2002B00
S32D0000E8A0E8D13869F96800F03FFB03464FF00102144618463E49FEF721FD0346002B02D14FF000031C46E3B208
S32D0000E8C8002B12D07B6A03F107037B623B6AA3F107033B6243F2CC60C1F6FF7046F2F411C0F2010102F0DEFE2F
S32D0000E8F026E03869F96800F017FB03464FF00102144618462B49FEF717FD0346002B02D14FF000031C46E3B2B0
S32D0000E918002B11D07B6AA3F107037B623B6A03F107033B6243F2CC60C1F6FF7046F20821C0F2010102F0B6FEE3
S32D0000E94001F0ACF802460B4610461946FEF7DAF90346FB617B68DB68184601F0B1FE0246BB699A420BDA7B6825
S32D0000E9681B69184601F0A8FE02467B699A4202DA4FF0010301E04FF00003002B7FF444AF7B681B6818464FF02A
S32D0000E990000100F091FD7B685B6818464FF0000100F08AFD07F12807BD46B0BD00000000000000C00000004088
S32D0000E9B8B0B58AB000AF78603960386800F074FA0346BB61386800F08FFA03467B616FF059037B626FF059037E
S32D0000E9E03B6201F05BF802460B4610461946FEF789F90346FB6100BF7B685B6A184605F061F803463B614FF087
S32D0000EA0801031C4638697549FEF76AFC0346002B02D14FF000031C46E3B2002BE8D17B68DB68184601F054FE95
S32D0000EA307B681B69184601F04FFEA7E07B681A687B6AC3F100031046194600F035FD7B685A683B6AC3F1000355
S32D0000EA581046194600F02CFD01F01CF804460D46F869FDF735FE02460B4620462946FDF7CFFC02460B464FF093
S32D0000EA8001010C46104619464FF000024FF07E5303F5C003FEF7FAF80346002B02D14FF000031C46E3B2002BC1
S32D0000EAA870D000BF7B685B6A184605F007F80346FB604FF001031C46F8684849FEF710FC0346002B02D14FF086
S32D0000EAD000031C46E3B2002BE8D13869F96800F023FA03464FF00102144618463E49FEF705FC0346002B02D124
S32D0000EAF84FF000031C46E3B2002B12D07B6A03F107037B623B6AA3F107033B6243F2CC60C1F6FF7046F2F41146
S32D0000EB20C0F2010102F0C2FD26E03869F96800F0FBF903464FF00102144618462B49FEF7FBFB0346002B02D18D
S32D0000EB484FF000031C46E3B2002B11D07B6AA3F107037B623B6A03F107033B6243F2CC60C1F6FF7046F20821D2
S32D0000EB70C0F2010102F09AFD00F090FF02460B4610461946FEF7BEF80346FB617B68DB68184601F095FD0246CE
S32D0000EB98BB699A420BDA7B681B69184601F08CFD02467B699A4202DA4FF0010301E04FF00003002B7FF43EAF56
S32D0000EBC07B681B6818464FF0000100F075FC7B685B6818464FF0000100F06EFC07F12807BD46B0BD000000008D
S32D0000EBE8000000C00000004090B587B000AF786039604FF00003FB7200BF7B685B6A184604F05CFF03467B617B
S32D0000EC104FF001031C467869A349FEF765FB0346002B02D14FF000031C46E3B2002BE8D178693968FEF7BCF880
S32D0000EC380346FB604FF001031C46F8689849FEF759FB0346002B02D14FF000031C46E3B2002B09D09348F9681B
S32D0000EC60FEF7A4F80346FB604FF00103FB722EE0F868FDF731FD02460B464FF001010C461046194686A3D3E94B
S32D0000EC880023FDF7FFFF0346002B02D14FF000031C46E3B2002B16D0F868FDF719FD02460B46104619467CA3E1
S32D0000ECB0D3E90023FDF7B0FB02460B4610461946FEF720F80346FB604FF00103FB724FF001031C463868744907
S32D0000ECD8FEF72EFB0346002B02D14FF000031C46E3B2002B5BD07B681B6818464FF0500100F0DEFB7B685B6857
S32D0000ED0018466FF04F0100F0D7FBFB7A002B32D07B685B6A184604F0D5FE03464FF00102144618466049FEF7C6
S32D0000ED28DFFA0346002B02D04FF000031C46E3B2002B0CD07B693B614FF00A0000F090FE7B685B6A184604F01D
S32D0000ED50B9FE03467B614FF001031C4638697969FEF7D6FA0346002B02D14FF000031C46E3B2002BCCD100BFC5
S32D0000ED787B685B6A184604F0A1FE03464FF0010214461846F968FEF7B5FA0346002B02D14FF000031C46E3B20C
S32D0000EDA0002BE9D16AE04FF001031C4638683E49FEF7A4FA0346002B02D14FF000031C46E3B2002B5AD07B68FF
S32D0000EDC81B6818466FF04F0100F072FB7B685B6818464FF0500100F06BFBFB7A002B32D07B685B6A184604F0AA
S32D0000EDF069FE03464FF00102144618462A49FEF773FA0346002B02D04FF000031C46E3B2002B0CD07B693B6170
S32D0000EE184FF00A0000F024FE7B685B6A184604F04DFE03467B614FF001031C4638697969FEF774FA0346002B08
S32D0000EE4002D14FF000031C46E3B2002BCCD100BF7B685B6A184604F035FE03464FF0010214461846F968FEF74B
S32D0000EE6849FA0346002B02D14FF000031C46E3B2002BE9D17B681B6818464FF0000100F017FB7B685B681846CA
S32D0000EE904FF0000100F010FB07F11C07BD4690BDCDCCCCCCCC7C6640000000000000344380B582B000AF78602A
S32D0000EEB87868FDF70DFC02460B461046194608A3D3E90023FDF758FC02460B4610461946FDF7ECFE034618465C
S32D0000EEE007F10807BD4680BD14AE47E17A14044080B582B000AF78607868FDF7EDFB02460B4610461946FDF715
S32D0000EF0889FA02460B4610461946FDF7CFFE0346184607F10807BD4680BD00BF0000000090B585B000AF78609B
S32D0000EF30396038687968FDF739FF0346FB60F868FDF7CAFB02460B464FF001010C461046194629A3D3E9002324
S32D0000EF58FDF7A2FE0346002B02D14FF000031C46E3B2002B11D0F868FDF7B2FB02460B4621A1D1E90001FDF760
S32D0000EF804BFA02460B4610461946FDF7BBFE0346FB60F868FDF7A0FB02460B464FF001010C461046194618A3F4
S32D0000EFA8D3E90023FDF75AFE0346002B02D14FF000031C46E3B2002B13D0F868FDF788FB02460B46104619465D
S32D0000EFD00BA3D3E90023FDF721FA02460B4610461946FDF78FFE0346FB60FB68184607F11407BD4690BD00BF21
S32D0000EFF89A99999999795640CDCCCCCCCC7C66409A999999997956C080B48FB000AF4FF0010387F82C304FF0B3
S32D0000F020000387F82D304FF000033B744FF001037B744FF00003FB613B467B6307F11C037B6107F11C0318465B
S32D0000F04807F13C07BD4680BC704700BF80B500AF44F2A822C1F6FF7243F22863C1F6FF73D31A194643F22863A9
S32D0000F070C1F6FF731A460B4610464FF000011A4604F04FFE80BD00BF05F0DAFE00F0B0F9FFF7E0FF05F08AFEAD
S32D0000F09805F026FE05F0E0FE00F00CF84FF0000043F28C61C1F6FF71FFF7ACF90346184604F00EFE80B500AFBC
S32D0000F0C04FF4E043C4F204034FF4E042C4F2040202F5805202F13802126842F4785203F5805303F138031A60FA
S32D0000F0E800F02EF900F094F843F29863C1F6FF734FF058021A6043F29863C1F6FF731B684FF47A7202FB03F2FE
S32D0000F11043F29463C1F6FF731A6043F29463C1F6FF731B681A464FF4E043C4F2040303F5825303F104031B685C
S32D0000F13803F070634FEA136303F10103B2FBF3F31A4643F29C63C1F6FF731A604FF4E043C4F204034FF4E042EA
S32D0000F160C4F2040202F5805202F13C02126842F0225203F5805303F13C031A604FF4E043C4F204034FF4E042AB
S32D0000F188C4F2040202F5805202F13002126842F0006203F5805303F130031A604FF45043C4F203034FF480726E
S32D0000F1B01A614FF0640000F0EBFA4FF45043C4F203034FF45042C4F20302526922F010025A614FF45043C4F2F6
S32D0000F1D803034FF000021A604FF45043C4F203034FF010025A6100F0D5FF01F07DF843F29060C1F6FF7000F045
S32D0000F2004BFB43F2CC60C1F6FF7001F0D1FF41F2883000F029FC80BD80B400AF4FF48043C4F206034FF000022C
S32D0000F2285A704FF48043C4F206034FF098021A704FF48043C4F206039B79DBB203F01003002B0CBF002301231D
S32D0000F250DBB2002BF0D14FF48043C4F206039B79DBB203F00C034FEA9303022B0CBF00230123DBB2002BEED12A
S32D0000F2784FF48043C4F206034FF018021A714FF48043C4F206034FF000025A714FF4E043C4F2040303F58253FE
S32D0000F2A003F104034FF00002C0F213121A604FF48043C4F206034FF054025A7100BF4FF48043C4F206039B79F6
S32D0000F2C8DBB203F02003002B14BF00230123DBB2002BF0D100BF4FF48043C4F206039B79DBB203F04003002B31
S32D0000F2F014BF00230123DBB2002BF0D14FF48043C4F206034FF48042C4F206021278D2B202F03F02D2B21A7086
S32D0000F3184FF48043C4F206039B79DBB203F00C034FEA9303032B0CBF00230123DBB2002BEED14FF00003184639
S32D0000F340BD4680BC704700BF80B400AF4FF44043C4F204034FF480725A634FF2C003C4F20F034FF2C002C4F20D
S32D0000F3680F02526942F400525A614FF2C003C4F20F034FF2C002C4F20F02126842F400521A604FF44043C4F2DA
S32D0000F390040340F20312C0F20A021A634FF46143CEF200034FF46142CEF20002D2F8882142F08062C3F8882189
S32D0000F3B84FF46143CEF200034FF46142CEF20002926842F080629A60BD4680BC704700BF80B483B000AF78602A
S32D0000F3E0FEE700BF80B400AF00BEBD4680BC704780B400AF4FF0E0224CF20003C0F20003C2F8083D4FF4005315
S32D0000F408C4F205034CF22052DA814FF40053C4F205034DF62812DA814FF40053C4F205034FF0D2021A80BD46DD
S32D0000F43080BC704780B400AF4FF44043C4F20403D3F8A03003F48053002B0CBF00230123DBB2002B19D04FF4CF
S32D0000F4584043C4F204034FF44042C4F20402D2F8A02022F48052C3F8A0204FF2C003C4F20F034FF2C002C4F253
S32D0000F4800F02126822F400521A60BD4680BC704780B483B000AF78600B46FB707B68FA781A707B684FF000024E
S32D0000F4A85A707B68184607F10C07BD4680BC704780B584B000AF786039603B687F2B03DD4FF07F03FB7309E05C
S32D0000F4D03B6813F1800F03DA4FF08003FB7301E03B68FB737B685B78FA7B9A420FD07B68FA7B5A707B681A785C
S32D0000F4F8FB7B43F29060C1F6FF7011461A464FF01E0300F00FFA07F11007BD4680BD00BF90B486B000AFF86086
S32D0000F520B9607A60FA684FF42043C4F206039A4214D14FF4E043C4F204034FF4E042C4F2040202F5805202F142
S32D0000F5483402126842F4806203F5805303F134031A6083E0FA684FF43043C4F206039A4214D14FF4E043C4F246
S32D0000F57004034FF4E042C4F2040202F5805202F13402126842F4006203F5805303F134031A6067E0FA684FF4E5
S32D0000F5984043C4F206039A4214D14FF4E043C4F204034FF4E042C4F2040202F5805202F13402126842F480528A
S32D0000F5C003F5805303F134031A604BE0FA684FF45043C4F206039A4214D14FF4E043C4F204034FF4E042C4F28C
S32D0000F5E8040202F5805202F13402126842F4005203F5805303F134031A602FE0FA684FF42043C4F20E039A42D1
S32D0000F61014D14FF4E043C4F204034FF4E042C4F2040202F5805202F12802126842F4806203F5805303F1280341
S32D0000F6381A6013E04FF4E043C4F204034FF4E042C4F2040202F5805202F12802126842F4006203F5805303F13C
S32D0000F66028031A60FB68DB78DBB223F00C03DAB2FB68DA70FB684FF000029A70BB684FF47A7202FB03F27B6864
S32D0000F6884FEA031392FBF3F39CB2FB681B78DBB223F01F03FB75234603F4F8534FEA2323DBB203F01F03DAB2C4
S32D0000F6B0FB7D1343DAB2FB681A70E2B2FB685A70BB684FF4FA4202FB03F27B684FEA031392FBF3F39AB2234636
S32D0000F6D819464FEAC121CB1A4FEA43139BB2D3189CB2FB689B7ADBB223F01F03FB75E3B203F01F03DAB2FB7D38
S32D0000F7001343DAB2FB689A72FB68DB78DBB243F00C03DAB2FB68DA7007F11807BD4690BC704700BF80B483B089
S32D0000F72800AF786000BF7B681B79DBB203F02003002B14BF00230123DBB2002BF3D17B68DB79DBB2184607F178
S32D0000F7500C07BD4680BC704780B483B000AF78600B46FB7000BF7B681B79DBB2DBB26FEA0303DBB24FEAD3137D
S32D0000F778DBB2002BF3D17B68FA78DA7107F10C07BD4680BC704700BF80B483B000AF78604FF4E043C4F2040376
S32D0000F7A04FF4E042C4F2040202F5805202F13802126842F0010203F5805303F138031A604FF00003C4F2040302
S32D0000F7C87A689A604FF00003C4F204034FF005025A604FF00003C4F204034FF00002C4F20402126842F001028D
S32D0000F7F01A6000BF4FF00003C4F204031B6803F08003002B14BF00230123DBB2002BF1D14FF00003C4F20403FC
S32D0000F8184FF00002C4F20402126822F001021A6007F10C07BD4680BC704700BF80B582B000AF786039607B6892
S32D0000F840012B0AD13A684FF6FF739A4205D143F29060C1F6FF7000F00FF807F10807BD4680BD00BF80B500AF5C
S32D0000F8684FF001004FF6FF71FFF7E0FF80BD00BF80B483B000AF78607B684FF000021A707B68184607F10C07C4
S32D0000F890BD4680BC704700BF80B582B000AF78607B681B7883F00103DBB2002B36D04FF4E043C4F2040303F5E1
S32D0000F8B8805303F128034FF400621A604FF45043C4F204034FF440721A624FF45043C4F204034FF440725A62C9
S32D0000F8E043F29463C1F6FF731B684FEAD372D3184FEA63034FF43040C4F20E0019464FF46142FFF709FE4FF022
S32D0000F908640000F0ADF87B684FF001021A704FF0010301E04FF00003184607F10807BD4680BD00BF80B582B0F8
S32D0000F93000AF7860F970BA707B704FF43040C4F20E004FF07F01FFF707FF4FF43040C4F20E004FF00801FFF7BD
S32D0000F958FFFEFB784FF43040C4F20E001946FFF7F7FEBB784FF43040C4F20E001946FFF7EFFE7B784FF43040BE
S32D0000F980C4F20E001946FFF7E7FE4FF43040C4F20E004FF0FF01FFF7DFFE07F10807BD4680BD00BF80B487B061
S32D0000F9A800AFF860B9607A60FA6844F6D353C1F26203A3FB02134FEA9312BB68D3187B61FA6844F6D353C1F26D
S32D0000F9D06203A3FB02134FEA93134FF47A7101FB03F3D31AFB60FB684FEAC33244F6D353C1F26203A3FB0213EE
S32D0000F9F84FEA93127B68D3183B613B694FEAD3337A69D3187B613B694FEA43434FEA53433B614FF45043C4F2B2
S32D0000FA2003031B681A467B699A4211D34FF45043C4F203031B681A467B699A420BD14FF45043C4F203035B68C5
S32D0000FA481A463B699A4202D24FF0010301E04FF00003002BDDD107F11C07BD4680BC704780B584B000AF78609C
S32D0000FA704FF45043C4F203031B68FB604FF45043C4F203035B68BB607B681846F968BA68FFF788FF07F1100738
S32D0000FA98BD4680BD80B584B000AF4FF45043C4F203031B68FB604FF45043C4F203035B68BB60F868FCF7EAFDCE
S32D0000FAC002460B46C7E90023B868FCF7E3FD02460B46104619464FF000024FF0804303F56003FCF777FF02461C
S32D0000FAE80B46D7E90001FCF795FC02460B46C7E90023D7E900231046194607F11007BD4680BD00BF80B483B0E1
S32D0000FB1000AF4FF45043C4F203031B684FF47A7202FB03F37B604FF45043C4F203035B684FF47A7202FB03F38F
S32D0000FB384FEAD3337A68D3187B607B68184607F10C07BD4680BC704780B483B000AF78607B68184607F10C073C
S32D0000FB60BD4680BC704700BF80B483B000AF78600B46FB707B68FA781A707B681B781A4646F2BC33C0F2010386
S32D0000FB889B5C042B00F2F98001A252F823F000BFADFB00000BFC000069FC0000C7FC000025FD00004FF4104370
S32D0000FBB0C4F204037A681278114646F20042C0F2010252F8212040F2031143F822104FF47043C4F20F034FF439
S32D0000FBD87042C4F20F02526911467A681278104646F20042C0F2010252F8202002F01F024FF0010000FA02F2B8
S32D0000FC006FEA02020A405A61BBE04FF42043C4F204037A681278114646F20042C0F2010252F8212040F20311B3
S32D0000FC2843F822104FF24003C4F20F034FF24002C4F20F02526911467A681278104646F20042C0F2010252F85E
S32D0000FC50202002F01F024FF0010000FA02F26FEA02020A405A618CE04FF43043C4F204037A681278114646F2C9
S32D0000FC780042C0F2010252F8212040F2031143F822104FF28003C4F20F034FF28002C4F20F02526911467A681F
S32D0000FCA01278104646F20042C0F2010252F8202002F01F024FF0010000FA02F26FEA02020A405A615DE04FF47A
S32D0000FCC84043C4F204037A681278114646F20042C0F2010252F8212040F2031143F822104FF2C003C4F20F03D2
S32D0000FCF04FF2C002C4F20F02526911467A681278104646F20042C0F2010252F8202002F01F024FF0010000FA42
S32D0000FD1802F26FEA02020A405A612EE04FF45043C4F204037A681278114646F20042C0F2010252F8212040F217
S32D0000FD40031143F822104FF47143C4F20F034FF47142C4F20F02526911467A681278104646F20042C0F2010295
S32D0000FD6852F8202002F01F024FF0010000FA02F26FEA02020A405A6100BF07F10C07BD4680BC704780B485B017
S32D0000FD9000AF78604FF00003FB607B681B781A4646F2BC33C0F201039B5C042B00F2868001A252F823F000BF91
S32D0000FDB8CDFD0000FDFD00002DFE00005DFE00008DFE00004FF47043C4F20F031B691A467B681B78194646F299
S32D0000FDE00043C0F2010353F8213003F01F034FF0010101FA03F31340FB605FE04FF24003C4F20F031B691A46FC
S32D0000FE087B681B78194646F20043C0F2010353F8213003F01F034FF0010101FA03F31340FB6047E04FF280034A
S32D0000FE30C4F20F031B691A467B681B78194646F20043C0F2010353F8213003F01F034FF0010101FA03F31340BC
S32D0000FE58FB602FE04FF2C003C4F20F031B691A467B681B78194646F20043C0F2010353F8213003F01F034FF06C
S32D0000FE80010101FA03F31340FB6017E04FF47143C4F20F031B691A467B681B78194646F20043C0F2010353F8C8
S32D0000FEA8213003F01F034FF0010101FA03F31340FB6000BFFB68002B0CBF00230123DBB2184607F11407BD4686
S32D0000FED080BC704780B483B000AF78600B46FB707B68FA781A707B68184607F10C07BD4680BC70470000000046
S32D0000FEF880B586B000AF78607B681B781A4646F28043C0F2010353F822303B617B681B781A4646F2DC33C0F25B
S32D0000FF2001039B5CFB733B69DBB203F01F03DAB243F2A063C1F6FF731A723B69DBB203F01F03DAB243F2A06381
S32D0000FF48C1F6FF735A724FF46143CEF200034FF46142CEF20002D2F8882042F01002C3F88820FB7B002B1ED19B
S32D0000FF704FF43040C4F2030043F2A061C1F6FF7100F01EFD4FF43043C4F203031B6803F08003002B14BF002303
S32D0000FF980123DBB2002BF1D14FF43043C4F203031B697B611DE04FF43040C4F20B0043F2A061C1F6FF7100F00D
S32D0000FFC0FFFC4FF43043C4F20B031B6803F08003002B14BF00230123DBB2002BF1D14FF43043C4F20B031B69E8
S32D0000FFE87B614FF46143CEF200034FF46142CEF20002D2F8882142F01002C3F888214FF46143CEF200034FF4B5
S32D000100106142CEF20002926842F010029A604FF46143CEF200034FF46142CEF20002D2F8882142F08062C3F890
S32D0001003888214FF46143CEF200034FF46142CEF20002926842F080629A607B694FEA03434FEA13431846FCF753
S32D0001006019FB02460B46104619460FA3D3E90023FCF786FB02460B46104619460CA3D3E90023FCF7A7FC024650
S32D000100880B4610461946FCF739FE0346BB60BB68184607F11807BD4680BD00BFAFF30080A4703D0AD7A30A40DD
S32D000100B000000000E0FFEF4080B586B000AF78607B681B781A4646F28043C0F2010353F822303B617B681B78EB
S32D000100D81A4646F2DC33C0F201039B5CFB733B69DBB203F01F03DAB243F2B063C1F6FF731A723B69DBB203F044
S32D000101001F03DAB243F2B063C1F6FF735A72FB7B002B1ED14FF43040C4F2030043F2B061C1F6FF7100F04CFC44
S32D000101284FF43043C4F203031B6803F08003002B14BF00230123DBB2002BF1D14FF43043C4F203031B697B61AC
S32D000101501DE04FF43040C4F20B0043F2B061C1F6FF7100F02DFC4FF43043C4F20B031B6803F08003002B14BF18
S32D0001017800230123DBB2002BF1D14FF43043C4F20B031B697B617B69184607F11807BD4680BD00BF98B500AF69
S32D000101A043F2A063C1F6FF734FF05C021A7043F2A063C1F6FF734FF010025A7043F2A063C1F6FF7341F2342242
S32D000101C85A8043F2A063C1F6FF7345F278629A8043F2A063C1F6FF734FF010029A7143F2A063C1F6FF734FF045
S32D000101F00702DA7143F2A063C1F6FF734FF4C022DA6043F2A063C1F6FF734FF01F021A7243F2A063C1F6FF731E
S32D000102184FF01F025A724FF43040C4F2030043F2A061C1F6FF7100F0C7FB4FF43040C4F20B0043F2A061C1F6AF
S32D00010240FF7100F0BDFB4FF43040C4F20B0000F011FB4FF43040C4F2030000F00BFB4FF43040C4F20B0043F2FC
S32D00010268A061C1F6FF7100F0A7FB4FF43040C4F2030043F2A061C1F6FF7100F09DFB43F2B062C1F6FF7243F2B8
S32D00010290A063C1F6FF7314460FCB84E80F0043F2B063C1F6FF734FF05C021A7043F2B063C1F6FF734FF0040216
S32D000102B8DA7198BD80B500AF43F2C463C1F6FF731B6803F1010243F2C463C1F6FF731A6000F072F94FF4E043D4
S32D000102E0C4F203034FF00102C3F80C2180BD00BF80B500AF4FF4E043C4F203034FF001021A6048F2A060C0F25F
S32D00010308010000F023F84FF4E043C4F203034FF00302C3F808214FF46143CEF200034FF46142CEF20002D2F854
S32D00010330882142F01002C3F888214FF46143CEF200034FF46142CEF20002926842F010029A6080BD80B483B01F
S32D0001035800AF78604FF4E043C4F203037A68C3F8002107F10C07BD4680BC704780B584B000AF78600B46FB7062
S32D000103807A68FB7810461946FFF7A4FD43F2C063C1F6FF731B68002B32D17B684FF000021A617B684FF00002B8
S32D000103A85A614FF0140004F063FD02467B689A617B689B697A689A607B689B694FF001025A607B689B69FA789F
S32D000103D01A707B689B694FF00002DA607B689B694FF000021A617B689B694FF000025A707B689A6943F2C0633F
S32D000103F8C1F6FF731A6071E043F2C063C1F6FF731B68FB6002E0FB68DB68FB60FB681B78FA789A4206D0FB6823
S32D00010420DB68002B02D04FF0010301E04FF00003002BECD1FB681B78FA789A4224D17B68FA689A617B689B69BF
S32D000104489B68BB6002E0BB681B69BB60BB681B69002B0CBF00230123DBB2002BF3D1BB687A681A617B68BA68DE
S32D000104705A617B684FF000021A617B689B695A6802F101025A602DE07B684FF000021A617B684FF000025A611F
S32D000104984FF0140004F0ECFC02467B689A617B689B697A689A607B689B694FF001025A607B689B69FA781A7057
S32D000104C07B689B694FF00002DA607B689B694FF000025A707B689B69FA681A617B689A69FB68DA60786800F0A2
S32D000104E8F7F87B684FF48C429A607B684FF45242DA607B68184607F11007BD4680BD00BF80B586B000AF7860D3
S32D000105107B685B697B617B681B693B617B69002B31D13B69002B2ED17B689B691B69FB607B689B69DB68BB604C
S32D00010538FB68002B0AD1BB68002B07D143F2C063C1F6FF734FF000021A6012E0FB68002B03D0FB68BA68DA60B7
S32D0001056005E043F2C063C1F6FF73BA681A60BB68002B02D0BB68FA681A617B689B69184604F0A0FC16E07B699B
S32D00010588002B03D07B693A691A6103E07B689B693A699A603B69002B02D03B697A695A617B689B695A6802F15E
S32D000105B0FF325A607B68184607F11807BD4680BD80B584B000AF43F2C063C1F6FF731B68FB6029E0FB685B78E3
S32D000105D8FB71FB689B68184600F02EF80346BB71BB79002B19D0FB685B68012B15DDFB689B681B69BB6008E0C0
S32D00010600BB685B6803F10102BB685A60BB681B69BB60BB68002B0CBF00230123DBB2002BEED1FB68DB68FB6077
S32D00010628FB68002B0CBF00230123DBB2002BCDD107F11007BD4680BD80B584B000AF78607868FFF735FD03461D
S32D00010650FB607B689B695B78FB72FB7A002B12D17B68DA68FB689A420DDA7B689B694FF001025A707B685B6892
S32D0001067803F101027B685A604FF0010317E0FB7A012B12D17B689A68FB689A420DDD7B689B694FF000025A7001
S32D000106A07B685B6803F101027B685A604FF0010301E04FF00003184607F11007BD4680BD80B483B000AF7860F0
S32D000106C87B685B68184607F10C07BD4680BC704780B483B000AF78607B684FF000025A6007F10C07BD4680BCE8
S32D000106F0704700BF80B582B000AF78600B46FB707B681846FFF724FA7B6803F101031846FFF71EFA7B6803F148
S32D0001071802031846FFF718FAFB78032B66D801A252F823F03D0701006B07010099070100C70701007B681846FF
S32D000107404FF00001FFF710FA7B6803F1010318464FF00101FFF708FA7B6803F1020318464FF00201FFF700FA6C
S32D0001076844E07B6818464FF00801FFF7F9F97B6803F1010318464FF00901FFF7F1F97B6803F1020318464FF0F2
S32D000107900A01FFF7E9F92DE07B6818464FF01001FFF7E2F97B6803F1010318464FF01101FFF7DAF97B6803F1BE
S32D000107B8020318464FF01201FFF7D2F916E07B6818464FF01801FFF7CBF97B6803F1010318464FF01901FFF7CB
S32D000107E0C3F97B6803F1020318464FF01A01FFF7BBF900BF7B68184607F10807BD4680BD80B582B000AF7860BB
S32D000108087B681846FFF7BEFA034683F00103DBB2184607F10807BD4680BD00BF80B582B000AF78607B6803F15C
S32D0001083001031846FFF7AAFA034683F00103DBB2184607F10807BD4680BD00BF80B582B000AF78607B6803F127
S32D0001085802031846FFF796FA034683F00103DBB2184607F10807BD4680BD00BF80B485B000AF78607B681B6A7F
S32D0001088023F040027B681A627B685B6A23F00B027B685A627B685B6A43F007027B685A627B685B6A43F080024E
S32D000108A87B685A627B681B6803F08003002B14BF00230123DBB2002BF4D17B685B6A03F04003002B0CBF0023ED
S32D000108D00123DBB2002B02D04FF0010369E04FF00003FB817B68DB6CFB817B689B6C9AB2FB89D318FB817B6857
S32D000108F85B6C9AB2FB89D318FB817B681B6C9AB2FB89D318FB817B68DB6B9AB2FB89D318FB817B689B6B9AB29D
S32D00010920FB89D318FB81FB894FEA5303FB81FB896FEA43436FEA5343FB81FA897B68DA624FF00003FB817B681D
S32D00010948DB6EFB817B689B6E9AB2FB89D318FB817B685B6E9AB2FB89D318FB817B681B6E9AB2FB89D318FB8112
S32D000109707B68DB6D9AB2FB89D318FB817B689B6D9AB2FB89D318FB81FB894FEA5303FB81FB896FEA43436FEA89
S32D000109985343FB81FA897B681A637B685B6A23F080027B685A624FF00003184607F11407BD4680BC704700BFF7
S32D000109C080B483B000AF786039603B681B781A467B689A603B685B781A467B68DA603B685B881A467B689A6157
S32D000109E83B689B881A467B68DA613B689B791A467B681A623B68DB791A467B685A623B68DA687B681A653B6846
S32D00010A101B7A1A467B681A603B685B7A1A467B685A6007F10C07BD4680BC704780B483B000AF78607B681846C0
S32D00010A3807F10C07BD4680BC704700BF80B582B000AF786039607B68012B0AD13A684FF6FF739A4205D143F21E
S32D00010A60C860C1F6FF70FFF7E1FF07F10807BD4680BD00BF80B500AF4FF001004FF6FF71FFF7E0FF80BD00BF93
S32D00010A8880B483B000AF78600B46FB707B68FA781A707B684FF4FA725A807B6840F6C4129A807B68044A9A6016
S32D00010AB07B68184607F10C07BD4680BC704700BF000080BF80B582B000AF78604FF43040C4F20E004FF07F01B3
S32D00010AD8FEF73EFE4FF43040C4F20E004FF00901FEF736FE7B681B784FF43040C4F20E001946FEF72DFE4FF426
S32D00010B003040C4F20E004FF00101FEF725FE4FF43040C4F20E004FF0FF01FEF71DFE07F10807BD4680BD00BF6D
S32D00010B2880B582B000AF78604FF43040C4F20E004FF07F01FEF70CFE4FF43040C4F20E004FF00901FEF704FEC4
S32D00010B507B681B784FF43040C4F20E001946FEF7FBFD4FF43040C4F20E004FF00001FEF7F3FD4FF43040C4F238
S32D00010B780E004FF0FF01FEF7EBFD07F10807BD4680BD00BF80B582B000AF78604FF43043C4F204034FF4807288
S32D00010BA0DA604FF42043C4F204034FF480729A644FF42043C4F204034FF480721A644FF42043C4F204034FF49A
S32D00010BC880725A644FF42043C4F204034FF48072DA604FF28003C4F20F034FF28002C4F20F02526942F008026F
S32D00010BF05A614FF24003C4F20F034FF24002C4F20F02526942F480225A614FF24003C4F20F034FF24002C4F2B2
S32D00010C180F02526942F480325A614FF24003C4F20F034FF24002C4F20F02526942F400325A614FF24003C4F290
S32D00010C400F034FF24002C4F20F02126842F008021A604FF24003C4F20F034FF24002C4F20F02526942F008026C
S32D00010C685A614FF28003C4F20F034FF28002C4F20F02126842F008021A604FF42043C4F204034FF480725A6208
S32D00010C904FF42043C4F204034FF480721A624FF43043C4F204034FF480721A614FF43043C4F204034FF4807256
S32D00010CB85A614FF43043C4F204034FF480729A614FF43043C4F204034FF48072DA614FF43043C4F204034FF416
S32D00010CE080721A634FF43043C4F204034FF480725A634FF43043C4F204034FF480729A634FF43043C4F20403F9
S32D00010D084FF48072DA634FF43043C4F204034FF480721A644FF43043C4F204034FF480725A644FF43043C4F252
S32D00010D3004034FF480729A644FF43043C4F204034FF48072DA644FF44043C4F204034FF480721A604FF440437C
S32D00010D58C4F204034FF480729A604FF44043C4F204034FF48072DA604FF44043C4F204034FF480721A614FF21A
S32D00010D804003C4F20F034FF24002C4F20F02526942F440725A614FF28002C4F20F024FF28003C4F20F035B69B7
S32D00010DA819464FF2F003C0F20F030B4353614FF2C003C4F20F034FF2C002C4F20F02526942F01D025A61786886
S32D00010DD04FF0E20100F0A8FC78684FF01D0100F0E7FD78684FF0020100F0E2FD78684FF0040100F0DDFD78686E
S32D00010DF84FF0E00100F094FC78684FF0010100F0D3FD4FF06400FEF72BFE78684FF0E00100F086FC78684FF0F9
S32D00010E20030100F0C5FD78684FF0010100F07CFC4FF00100FEF718FE78684FF0E60100F073FC78684FF0010193
S32D00010E4800F0B2FD78684FF0A00100F0ADFD78684FF0FF0100F0A8FD78684FF0B00100F05FFC78684FF01C0177
S32D00010E7000F09EFD78684FF00F0100F099FD78684FF0010100F094FD78684FF03F0100F08FFD78684FF0000176
S32D00010E9800F08AFD78684FF0EF0100F085FD78684FF0000100F080FD78684FF0B40100F037FC78684FF001018E
S32D00010EC000F076FD78684FF0990100F071FD78684FF0000100F06CFD78684FF0450100F067FD78684FF0020135
S32D00010EE800F062FD78684FF0000100F05DFD78684FF0000100F058FD78684FF0000100F053FD78684FF0B60187
S32D00010F1000F00AFC78684FF0010100F049FD78684FF0090100F044FD78684FF0000100F03FFD78684FF00E0191
S32D00010F3800F03AFD78684FF0020100F035FD78684FF0000100F030FD78684FF0000100F02BFD78684FF0BA01D0
S32D00010F6000F0E2FB78684FF00F0100F021FD4FF06400FEF779FD78684FF03A0100F0D4FB78684FF0600100F0C1
S32D00010F8813FD78684FF02A0100F0CAFB78684FF0000100F009FD78684FF0000100F004FD78684FF0010100F0F3
S32D00010FB0FFFC78684FF03F0100F0FAFC78684FF02B0100F0B1FB78684FF0000100F0F0FC78684FF0000100F0DF
S32D00010FD8EBFC78684FF0000100F0E6FC78684FF0EF0100F0E1FC78684FF0360100F098FB78684FF0000100F04C
S32D00011000D7FC78684FF0F00100F08EFB78684FF0040100F0CDFC78684FF0B80100F084FB78684FF00F0100F022
S32D00011028C3FC78684FF0010100F0BEFC4FF24003C4F20F034FF24002C4F20F02126842F008021A604FF06400A6
S32D00011050FEF70AFD78684FF0360100F065FB78684FF0000100F0A4FC78684FF0F00100F05BFB78684FF00401A5
S32D0001107800F09AFC43F2CC60C1F6FF704FF0010100F0AAF943F2CC60C1F6FF704FF06F014FF01E0200F0A4F847
S32D000110A043F2CC60C1F6FF704FF0000100F0F6F943F2CC60C1F6FF7046F23821C0F201014FF05A024FF0AF0323
S32D000110C800F010FA78684FF0290100F029FB4FF06400FEF7C5FC78684FF0BE0100F020FB78684FF00E0100F042
S32D000110F05FFC78684FF0F00100F05AFC78684FF0010100F055FC78684FF0000100F050FC78684FF0000100F052
S32D000111184BFC78684FF00F0100F046FC43F2CC60C1F6FF704FF0010100F0B4F943F2CC60C1F6FF704FF00001D4
S32D0001114000F084F907F10807BD4680BD80B582B000AF78607B684FF00002DA617B684FF001021A627B684FF0BC
S32D000111680E025A607B684FF01A029A607B684FF000025A617B684FF000029A617B684FF4A072DA607B684FF0C4
S32D00011190F0021A617B684FF000021A70786801F02DFA7B68184607F10807BD4680BD00BF80B582B000AF7860E8
S32D000111B843F20873C1F6FF731B7883F00103DBB2002B09D043F20873C1F6FF734FF001021A707868FFF7D6FC47
S32D000111E007F10807BD4680BD80B58AB002AFF860B9607A604FF07E030093F868B9687A684FF0620300F05AFE8C
S32D000112084FF00003FB614FF00003BB6155E04FF000037B6145E040F20043C1F6FF73FA699B181B78002B09D1F7
S32D000112304FF0FF03FB744FF0FF03BB744FF0FF037B741BE040F20043C1F6FF73FA699B181B78012B09D14FF0B8
S32D00011258D403FB744FF00003BB744FF026037B7408E04FF0B503FB744FF0BA03BB744FF0B0037B74F97CBA7C54
S32D000112807B7CF86800F08AF80246FB68DA61F86801F0B4F9F86801F051F8FB6903F10103FB617B6903F1010364
S32D000112A87B617B69612BCCBF00230123DBB2002BB1D1BB6903F10103BB61BB697D2BCCBF00230123DBB2002B31
S32D000112D0A1D107F12007BD4680BD00BF80B485B000AF78600B46FB70FB78062B2ED801A252F823F019130100DC
S32D000112F81113010021130100291301003113010039130100411301006FF07F43FB6019E04FF00003FB6015E042
S32D000113204FF47F03FB6011E04FF47F43FB600DE04FF0FF03FB6009E04FF41903FB6005E049F69913C0F29903E3
S32D00011348FB6000BFFB68184607F11407BD4680BC704700BF80B584B000AF786039603B6803F47F034FEA13439F
S32D00011370FB733B6803F47F434FEA1323BB733B687B73F97BBA7B7B7B786800F007F80346184607F11007BD462F
S32D0001139880BD00BF80B487B000AF7860F970BA707B70FB784FEAA3037B61BB784FEAA3033B617B784FEAA3030C
S32D000113C0FB607B694FEA03323B694FEA83131A43FB681343184607F11C07BD4680BC704780B582B000AF78606B
S32D000113E80B46FB70FB7878681946FFF773FF03467868194600F004F807F10807BD4680BD80B582B000AF786057
S32D00011410396078683968FFF7A1FF02467B681A62786801F0EBF8786800F0ECFB07F10807BD4680BD80B582B03D
S32D0001143800AF7860786800F0E1FB07F10807BD4680BD00BF80B582B000AF78600B46FB70FB7878681946FFF7FA
S32D000114603DFF03467868194600F004F807F10807BD4680BD80B582B000AF7860396078683968FFF76BFF0246B6
S32D000114887B681A62786801F0B5F807F10807BD4680BD00BF80B582B000AF78600B46FB70FB7878681946FFF700
S32D000114B015FF03467868194600F004F807F10807BD4680BD80B582B000AF7860396078683968FFF743FF0246B6
S32D000114D87B68DA61786801F08DF807F10807BD4680BD00BF80B586B000AFF860B9607A603B604FF000037B614D
S32D0001150010E07B69BA68D3181B78F86879683A6800F07AFD7B6803F10C037B607B6903F101037B617B69BA687F
S32D00011528D3181B78002B0CBF00230123DBB2002BE3D107F11807BD4680BD00BF80B584B000AF786039604FF08F
S32D000115500003FB60786800F081FC11E07B6859697B689A69FB683868C3181B78786800F02BFD786800F088FC88
S32D00011578FB6803F10103FB60FB683A68D3181B78002B0CBF00230123DBB2002BE2D107F11007BD4680BD00BF55
S32D000115A090B593B000AF786039604FF001031C4638683049FBF7B6FE0346002B02D14FF000031C46E3B2002B65
S32D000115C823D03868FBF7BEFE03467B64786CFBF79FFC034638681946FBF7E4FB034618462349FBF7E9FC0346CE
S32D000115F01846FBF7ABFE03463B6407F10C03184646F25421C0F201017A6C3B6C02F028FB26E03B6883F0004324
S32D000116183B603868FBF796FE03467B64786CFBF777FC034638681946FBF7BCFB034618460F49FBF7C1FC034689
S32D000116401846FBF783FE03463B6407F10C03184646F24821C0F201017A6C3B6C02F000FB07F10C037868194648
S32D00011668FFF76CFF07F14C07BD4690BD0000000000007A4480B582B000AF78600B46FB70786800F0E7FB7B685A
S32D0001169059697B689A69FB78786800F095FC786800F0F2FB07F10807BD4680BD80B582B000AF78603960786844
S32D000116B800F0D0FB78683968FFF740FF786800F0B1FB07F10807BD4680BD00BF80B582B000AF786039607868A9
S32D000116E000F0BCFB78683968FFF75AFF786800F09DFB07F10807BD4680BD00BF80B582B000AF78600B46FB704C
S32D00011708786800F0A7FBFB7878681946FFF7B2FF786800F087FB07F10807BD4680BD00BF80B483B000AF7860A1
S32D000117300B46FB704FF28003C4F20F034FF28002C4F20F02126822F008021A604FF24003C4F20F034FF24002D9
S32D00011758C4F20F02126822F480221A604FF24003C4F20F034FF24002C4F20F02126842F480321A604FF24003F9
S32D00011780C4F20F034FF24002C4F20F02126822F440721A604FF28003C4F20F034FF28002C4F20F02126822F4C6
S32D000117A8425222F070021A604FF24003C4F20F034FF24002C4F20F0212681146FA7802F00102D2B2002A02D032
S32D000117D04FF4007201E04FF000020A431A604FF24003C4F20F034FF24002C4F20F0212681146FA7802F002027D
S32D000117F8002A02D04FF4807201E04FF000020A431A604FF28003C4F20F034FF28002C4F20F0212681146FA784F
S32D0001182002F00402002A02D04FF0100201E04FF000020A431A604FF28003C4F20F034FF28002C4F20F021268DB
S32D000118481146FA7802F00802002A02D04FF0200201E04FF000020A431A604FF28003C4F20F034FF28002C4F261
S32D000118700F0212681146FA7802F01002002A02D04FF0400201E04FF000020A431A604FF28003C4F20F034FF2BE
S32D000118988002C4F20F0212681146FA7802F02002002A02D04FF0800201E04FF000020A431A604FF28003C4F261
S32D000118C00F034FF28002C4F20F0212681146FA7802F04002002A02D04FF4805201E04FF000020A431A604FF2AB
S32D000118E88003C4F20F034FF28002C4F20F0212681146FA7852B2002A02DA4FF4005201E04FF000020A431A6031
S32D000119104FF24003C4F20F034FF24002C4F20F02126822F400321A604FF24003C4F20F034FF24002C4F20F0240
S32D00011938126842F400321A604FF28003C4F20F034FF28002C4F20F02126842F008021A604FF24003C4F20F0392
S32D000119604FF24002C4F20F02126842F440721A604FF28003C4F20F034FF28002C4F20F02126842F4425242F0A6
S32D0001198870021A604FF24003C4F20F034FF24002C4F20F02126842F480221A6007F10C07BD4680BC704700BF22
S32D000119B080B483B000AF78600B46FB704FF28003C4F20F034FF28002C4F20F02126822F008021A604FF24003B4
S32D000119D8C4F20F034FF24002C4F20F02126842F480321A604FF24003C4F20F034FF24002C4F20F02126842F4AC
S32D00011A0080221A604FF24003C4F20F034FF24002C4F20F02126822F440721A604FF28003C4F20F034FF28002FA
S32D00011A28C4F20F02126822F4425222F070021A604FF24003C4F20F034FF24002C4F20F0212681146FA7802F0DB
S32D00011A500102D2B2002A02D04FF4007201E04FF000020A431A604FF24003C4F20F034FF24002C4F20F02126836
S32D00011A781146FA7802F00202002A02D04FF4807201E04FF000020A431A604FF28003C4F20F034FF28002C4F261
S32D00011AA00F0212681146FA7802F00402002A02D04FF0100201E04FF000020A431A604FF28003C4F20F034FF2C8
S32D00011AC88002C4F20F0212681146FA7802F00802002A02D04FF0200201E04FF000020A431A604FF28003C4F2A7
S32D00011AF00F034FF28002C4F20F0212681146FA7802F01002002A02D04FF0400201E04FF000020A431A604FF23D
S32D00011B188003C4F20F034FF28002C4F20F0212681146FA7802F02002002A02D04FF0800201E04FF000020A4346
S32D00011B401A604FF28003C4F20F034FF28002C4F20F0212681146FA7802F04002002A02D04FF4805201E04FF03E
S32D00011B6800020A431A604FF28003C4F20F034FF28002C4F20F0212681146FA7852B2002A02DA4FF4005201E0AC
S32D00011B904FF000020A431A604FF24003C4F20F034FF24002C4F20F02126822F400321A604FF24003C4F20F0300
S32D00011BB84FF24002C4F20F02126842F400321A604FF28003C4F20F034FF28002C4F20F02126842F008021A6012
S32D00011BE04FF24003C4F20F034FF24002C4F20F02126822F480221A6007F10C07BD4680BC704700BF80B586B069
S32D00011C0800AF78607B684FF000025A617B684FF000029A617B681B6AFB60FB68FB72FB684FEA1323BB72FB6833
S32D00011C304FEA1343DBB203F003037B7278684FF02A01FFF771FD78684FF00001FFF7B0FE78684FF00001FFF7FB
S32D00011C58ABFE78684FF00101FFF7A6FE78684FF03F01FFF7A1FE78684FF02B01FFF758FD78684FF00001FFF759
S32D00011C8097FE78684FF00001FFF792FE78684FF00001FFF78DFE78684FF0EF01FFF788FE78684FF02C01FFF78C
S32D00011CA83FFD4FF24003C4F20F034FF24002C4F20F02126822F440721A604FF28002C4F20F024FF28003C4F27B
S32D00011CD00F031B68194640F60F73CFF6F0730B4013604FF2C003C4F20F034FF2C002C4F20F02126822F01D0212
S32D00011CF81A604FF24003C4F20F034FF24002C4F20F02126811467A68126B0A431A604FF28003C4F20F034FF2E9
S32D00011D208002C4F20F02126811467A68526B0A431A604FF2C003C4F20F034FF2C002C4F20F02126811467A68CB
S32D00011D48926B0A431A604FF28003C4F20F034FF28002C4F20F02126822F008021A604FF24003C4F20F034FF2F5
S32D00011D704002C4F20F02126842F480221A604FF000037B612DE04FF000033B611BE04FF24003C4F20F034FF2DE
S32D00011D984002C4F20F02126822F400321A604FF24003C4F20F034FF24002C4F20F02126842F400321A603B6941
S32D00011DC003F101033B613A6940F23F139A428CBF00230123DBB2002BD9D17B6903F101037B617B69EF2B8CBF68
S32D00011DE800230123DBB2002BC9D14FF28003C4F20F034FF28002C4F20F02126842F008021A604FF24003C4F2B3
S32D00011E100F034FF24002C4F20F02126822F480221A6007F11807BD4680BD00BF80B483B000AF78607B689B69B0
S32D00011E38002B09DD7B685B6903F101027B685A617B684FF000029A6107F10C07BD4680BC704700BF80B582B0E8
S32D00011E6000AF78607B685A697B685B689A4206DB7B684FF000025A617868FFF7C3FE07F10807BD4680BD00BF47
S32D00011E8880B582B000AF78607B689B6903F101027B689A617B689A697B689B689A4205D17868FFF7BFFF78688F
S32D00011EB0FFF7D4FF07F10807BD4680BD80B588B000AFF860B9607A603B60FB681B78022B03D0FB681B78032BD7
S32D00011ED813D17B68FB61BA6AFB69D31803F1FF33BB61FB68DA68BB68D31A3B613B683A69D31A03F101037B61AB
S32D00011F000FE0BB68FB613A68FB69D31803F1FF33BB617B687B61BA6A7B69D31803F1FF333B61F8684FF02A01D3
S32D00011F28FFF7FEFBFB6903F470634FEA1323DBB2F8681946FFF738FDFB69DBB2F8681946FFF732FDBB6903F497
S32D00011F5070634FEA1323DBB2F8681946FFF728FDBB69DBB2F8681946FFF722FDF8684FF02B01FFF7D9FB7B69BB
S32D00011F7803F470634FEA1323DBB2F8681946FFF713FD7B69DBB2F8681946FFF70DFD3B6903F470634FEA1323A2
S32D00011FA0DBB2F8681946FFF703FD3B69DBB2F8681946FFF7FDFCF8684FF02C01FFF7B4FB07F12007BD4680BD21
S32D00011FC880B584B000AFF860B9607A60FB707A6813464FEA43039B184FEA830303F10201BA6813464FEA03132F
S32D00011FF09B1803F10302FB78F86800F005F807F11007BD4680BD00BF80B58EB002AFF860B9607A60FB70FB78FB
S32D000120180A2B06D1F868FFF71DFFF868FFF702FF25E1FB787D2B02D8FB781F2B02D84FF02003FB70FB78A3F15E
S32D000120402003FB704FF011030093F868B9687A684FF00C03FFF732FFFA7813464FEA83039A1843F23C43C1F67E
S32D00012068FF739B5C3B75FA7813464FEA83039B1803F1010243F23C43C1F6FF739B5C7B75FA7813464FEA8303AE
S32D000120909B1803F1020243F23C43C1F6FF739B5CBB75FA7813464FEA83039B1803F1030243F23C43C1F6FF735F
S32D000120B89B5CFB75FA7813464FEA83039B1803F1040243F23C43C1F6FF739B5C3B764FF00003BB62A8E0F8688F
S32D000120E000F0DCF9F86800F0CBF84FF0000387F82F304FF000037B6231E007F114027B6AD3181B7803F0010341
S32D00012108FB76FB7E002B11D097F82F3083F00103DBB2002B03D0F86800F00CF902E0F86800F0AAF8F86800F049
S32D00012130A7F80DE097F82F30002B03D0F86800F0ADF902E0F86800F09BF8F86800F098F8FB7E87F82F307B6A31
S32D0001215803F101037B627B6A042BCCBF00230123DBB2002BC5D197F82F30002B03D0F86800F090F902E0F86848
S32D0001218000F07EF8F86800F07BF84FF0000387F82F304FF000033B623EE007F114023B6AD3181B7803F00103C2
S32D000121A8BB76BB7E002B11D097F82F3083F00103DBB2002B03D0F86800F0BCF802E0F86800F05AF8F86800F0CA
S32D000121D057F80DE097F82F30002B03D0F86800F05DF902E0F86800F04BF8F86800F048F8BB7E87F82F3007F1FE
S32D000121F814023B6AD3181B784FEA6303DAB207F114013B6ACB181A703B6A03F101033B623B6A042BCCBF002379
S32D000122200123DBB2002BB8D1BB6A03F10103BB62BB6A062BCCBF00230123DBB2002B7FF44EAFF86800F02AF92D
S32D000122484FF0000387F82F304FF00103FB6106E0F86800F011F8FB6903F10103FB61FB69232BCCBF002301232D
S32D00012270DBB2002BF0D107F13007BD4680BD00BF80B483B000AF78604FF24003C4F20F034FF24002C4F20F0214
S32D00012298126842F480321A604FF28003C4F20F034FF28002C4F20F02126822F008021A604FF24003C4F20F03C9
S32D000122C04FF24002C4F20F02126842F480221A604FF24003C4F20F034FF24002C4F20F02126822F400321A6007
S32D000122E84FF24003C4F20F034FF24002C4F20F02126842F400321A604FF28003C4F20F034FF28002C4F20F02BF
S32D00012310126842F008021A604FF24003C4F20F034FF24002C4F20F02126822F480221A6007F10C07BD4680BCE2
S32D00012338704700BF80B483B000AF78604FF24003C4F20F034FF24002C4F20F02126842F480321A604FF28003DC
S32D00012360C4F20F034FF28002C4F20F02126822F008021A604FF24003C4F20F034FF24002C4F20F02126842F4A6
S32D0001238880221A604FF24003C4F20F034FF24002C4F20F02126822F440721A604FF28002C4F20F024FF280036A
S32D000123B0C4F20F031B68194640F60F73CFF6F0730B4013604FF2C003C4F20F034FF2C002C4F20F02126822F094
S32D000123D81D021A604FF24003C4F20F034FF24002C4F20F02126811467A68526A0A431A604FF28003C4F20F03E5
S32D000124004FF28002C4F20F02126811467A68926A0A431A604FF2C003C4F20F034FF2C002C4F20F021268114646
S32D000124287A68D26A0A431A604FF24003C4F20F034FF24002C4F20F02126822F400321A604FF24003C4F20F0382
S32D000124504FF24002C4F20F02126842F400321A604FF28003C4F20F034FF28002C4F20F02126842F008021A6071
S32D000124784FF24003C4F20F034FF24002C4F20F02126822F480221A6007F10C07BD4680BC704700BF80B483B0CC
S32D000124A000AF78604FF24003C4F20F034FF24002C4F20F02126842F480321A604FF28003C4F20F034FF28002C5
S32D000124C8C4F20F02126822F008021A604FF24003C4F20F034FF24002C4F20F02126842F480221A604FF2400328
S32D000124F0C4F20F034FF24002C4F20F02126822F440721A604FF28002C4F20F024FF28003C4F20F031B681946F7
S32D0001251840F60F73CFF6F0730B4013604FF2C003C4F20F034FF2C002C4F20F02126822F01D021A604FF24003B7
S32D00012540C4F20F034FF24002C4F20F02126811467A68126B0A431A604FF28003C4F20F034FF28002C4F20F024D
S32D00012568126811467A68526B0A431A604FF2C003C4F20F034FF2C002C4F20F02126811467A68926B0A431A6000
S32D000125904FF24003C4F20F034FF24002C4F20F02126822F400321A604FF24003C4F20F034FF24002C4F20F02B4
S32D000125B8126842F400321A604FF28003C4F20F034FF28002C4F20F02126842F008021A604FF24003C4F20F0306
S32D000125E04FF24002C4F20F02126822F480221A6007F10C07BD4680BC704700BF80B485B000AF78607B681B6ABE
S32D00012608FB60FB68FB72FB684FEA1323BB72FB684FEA1343DBB203F003037B727B684FF000025A627B684FF012
S32D0001263000029A627B684FF00002DA627B684FF000021A637B684FF000025A637B684FF000029A637B681A6B12
S32D00012658FB7A03F00103DBB2002B02D04FF4007301E04FF000031A437B681A637B681A6BFB7A03F00203002BC7
S32D0001268002D04FF4807301E04FF000031A437B681A637B685A6BFB7A03F00403002B02D04FF0100301E04FF0BD
S32D000126A800031A437B685A637B685A6BFB7A03F00803002B02D04FF0200301E04FF000031A437B685A637B6886
S32D000126D05A6BFB7A03F01003002B02D04FF0400301E04FF000031A437B685A637B685A6BFB7A03F02003002B9E
S32D000126F802D04FF0800301E04FF000031A437B685A637B685A6BFB7A03F04003002B02D04FF4805301E04FF079
S32D0001272000031A437B685A637B685A6BFB7A5BB2002B02DA4FF4005301E04FF000031A437B685A637B685A6BFB
S32D00012748BB7A03F00103DBB2002B02D04FF4804301E04FF000031A437B685A637B685A6BBB7A03F00203002B86
S32D0001277002D04FF4004301E04FF000031A437B685A637B685A6BBB7A03F00403002B02D04FF4803301E04FF0D8
S32D0001279800031A437B685A637B685A6BBB7A03F00803002B02D04FF4003301E04FF000031A437B685A637B68C1
S32D000127C05A6BBB7A03F01003002B02D04FF4802301E04FF000031A437B685A637B685A6BBB7A03F02003002BC9
S32D000127E802D04FF4002301E04FF000031A437B685A637B689A6BBB7A03F04003002B02D04FF0010301E04FF0B7
S32D0001281000031A437B689A637B689A6BBB7A5BB2002B02DA4FF0040301E04FF000031A437B689A637B689A6B9A
S32D000128387B7A03F00103DBB2002B02D04FF0080301E04FF000031A437B689A637B689A6B7B7A03F00203002B51
S32D0001286002D04FF0100301E04FF000031A437B689A637B68DB69FB60FB68FB72FB684FEA1323BB72FB684FEAD8
S32D000128881343DBB203F003037B727B685A6AFB7A03F00103DBB2002B02D04FF4007301E04FF000031A437B68A2
S32D000128B05A627B685A6AFB7A03F00203002B02D04FF4807301E04FF000031A437B685A627B689A6AFB7A03F088
S32D000128D80403002B02D04FF0100301E04FF000031A437B689A627B689A6AFB7A03F00803002B02D04FF0200363
S32D0001290001E04FF000031A437B689A627B689A6AFB7A03F01003002B02D04FF0400301E04FF000031A437B6805
S32D000129289A627B689A6AFB7A03F02003002B02D04FF0800301E04FF000031A437B689A627B689A6AFB7A03F0A5
S32D000129504003002B02D04FF4805301E04FF000031A437B689A627B689A6AFB7A5BB2002B02DA4FF4005301E0BC
S32D000129784FF000031A437B689A627B689A6ABB7A03F00103DBB2002B02D04FF4804301E04FF000031A437B68AC
S32D000129A09A627B689A6ABB7A03F00203002B02D04FF4004301E04FF000031A437B689A627B689A6ABB7A03F007
S32D000129C80403002B02D04FF4803301E04FF000031A437B689A627B689A6ABB7A03F00803002B02D04FF40033FA
S32D000129F001E04FF000031A437B689A627B689A6ABB7A03F01003002B02D04FF4802301E04FF000031A437B68F1
S32D00012A189A627B689A6ABB7A03F02003002B02D04FF4002301E04FF000031A437B689A627B68DA6ABB7A03F050
S32D00012A404003002B02D04FF0010301E04FF000031A437B68DA627B68DA6ABB7A5BB2002B02DA4FF0040301E0AE
S32D00012A684FF000031A437B68DA627B68DA6A7B7A03F00103DBB2002B02D04FF0080301E04FF000031A437B6837
S32D00012A90DA627B68DA6A7B7A03F00203002B02D04FF0100301E04FF000031A437B68DA6207F11407BD4680BC87
S32D00012AB8704700BF80B582B000AF786039607B68012B0AD13A684FF6FF739A4205D143F2CC60C1F6FF70FEF781
S32D00012AE035FB07F10807BD4680BD00BF80B500AF4FF001004FF6FF71FFF7E0FF80BD00BF80B582B000AF7860F9
S32D00012B087B681846FDF7F4F9034618460649FAF753FA034618460549FAF702FB0346184607F10807BD4680BD77
S32D00012B3000404A4400004D4380B582B000AF78600B46FB707A68FB7810461946FDF7C2F97B68184607F108076D
